:020000040802F0
:1000000050350324AD020208A91703086908030844
:10001000A1170308C91D0208796A0308000000003F
:10002000000000000000000000000000C13D0308C7
:10003000412902080000000031180308A940030804
:10004000C7020208C7020208C7020208C702020864
:10005000C7020208C7020208C7020208C702020854
:10006000C7020208C7020208C7020208B11E02083E
:10007000C7020208C7020208C7020208C702020834
:10008000C7020208C7020208C7020208C702020824
:10009000C7020208C7020208C7020208C702020814
:1000A000C7020208C7020208C7020208C702020804
:1000B000C7020208C702020849430308C702020830
:1000C000C7020208C7020208C7020208313B030840
:1000D000C7020208C7020208C702020859610308E2
:1000E000C7020208C702020800000000C702020897
:1000F000C7020208C7020208C7020208C7020208B4
:10010000C7020208F9220308C7020208C702020850
:10011000C7020208C7020208C7020208C702020893
:10012000C7020208C7020208C7020208C702020883
:10013000C7020208C7020208C7020208C702020873
:1001400000000000000000000000000000000000AF
:10015000C7020208C7020208C70202087961030841
:10016000C7020208C7020208C7020208C702020843
:10017000C7020208C7020208C7020208C702020833
:10018000C7020208C7020208C7020208C702020823
:10019000C7020208C7020208C7020208C702020813
:1001A000C7020208C7020208C7020208C702020803
:1001B000B11D0308C7020208C7020208C7020208ED
:1001C000C7020208C7020208C7020208C7020208E3
:1001D000C702020821180308C7020208C702020862
:1001E000C7020208C7020208C7020208C7020208C3
:1001F000C7020208C7020208C7020208C7020208B3
:10020000C7020208C7020208C7020208C7020208A2
:10021000C7020208C7020208C7020208C702020892
:10022000C7020208C702020801100308000000000C
:10023000C7020208C702020800000000C702020845
:10024000C7020208C7020208C7020208C702020862
:10025000C7020208C7020208C7020208C702020852
:10026000C7020208C7020208C7020208C702020842
:10027000C7020208C7020208C70202080000000005
:10028000C7020208C7020208C702020800000000F5
:1002900000000000C7020208DFF80CD000F062FE88
:1002A00000480047C1B3070850350324064880477B
:1002B00006480047FEE7FEE7FEE7FEE7FEE7FEE74B
:1002C000FEE7FEE7FEE7FEE7E941030899020208C0
:1002D0002DE9F05F0546002092469B46884606467B
:1002E000814640241BE0284641464746224600F00E
:1002F000CCF853465A46C01A914110D311461846BD
:10030000224600F0B3F82D1A67EB01084F4622464B
:100310000120002100F0AAF817EB00094E41201E31
:10032000A4F10104DFDC484631462A464346BDE8D5
:10033000F09F40EA01039B0703D009E008C9121FA0
:1003400008C0042AFAD203E011F8013B00F8013B8F
:10035000521EF9D27047D2B201E000F8012B491EBB
:10036000FBD270470022F6E710B513460A46044652
:100370001946FFF7F0FF204610BD30B505462A4666
:100380000B4612F8010B13F8014B08B1A042F8D04C
:100390001CB1002802D06D1CF1E7284630BD10B515
:1003A000044604E00B7800F8013B03B1491C521EDF
:1003B000F8D2204610BDCAB2401E10F8011F8A4272
:1003C00002D00029F9D100207047421C10F8011B0F
:1003D0000029FBD1801A704710B5002200E0521CA2
:1003E000835C8C5CA34201D1002BF8D1D8B2E1B27E
:1003F000401A10BD034611F8012B00F8012B002A0A
:10040000F9D11846704700000FB400B58DB010A99F
:1004100009900B9000914FF0FF300A9000200C9053
:1004200005480690054807906A4609A80F9900F00C
:10043000B3FB0DB05DF814FBB50B0208D30B02083B
:1004400030B50B46014600202022012409E021FAA4
:1004500002F59D4205D303FA02F5491B04FA02F5A1
:100460002844151EA2F10102F1DC30BD202A04DB74
:10047000203A00FA02F1002070479140C2F12003B7
:1004800020FA03F3194390407047202A04DB203AF6
:1004900021FA02F00021704721FA02F3D040C2F1A4
:1004A000200291400843194670472DE9FF4F1C4632
:1004B00081B00021D4E9016791464FF0FF358A46AB
:1004C0008846A1696D1C02988847216A834688473F
:1004D0000028F6D1BBF1FF3F0CD026F4C066002FF8
:1004E0001ADD700615D5BBF12B0F0AD0BBF12D0F0D
:1004F0000FD104E04FF0FF3005B0BDE8F08F46F4B7
:100500008066A1696D1C029888477F1E8346002F74
:1005100002DDBBF1300F03D0B9F1000F2AD025E086
:10052000A1696D1C46F400767F1E029888478346B9
:10053000002F05DDBBF1780F06D0BBF1580F03D0BB
:10054000B9F1000F10D011E0B9F1000F02D0B9F1EC
:10055000100F0BD1A1696D1C26F400767F1E029846
:1005600088478346102000E0082081464FEAE97062
:10057000009017E00A20F8E74346AAFB092803FB8E
:100580000980DDF800C07F1E0AFB0C0112EB0B0A8C
:1005900041EBEB78A16946F4007605F1010502987C
:1005A00088478346002F06DD4946584600F003FD84
:1005B0005FEA000BE0D5E16902988847B00502D4F4
:1005C0006FF0010098E7F00718D1700610D570059C
:1005D000514605D50023D1EB030163EB080200E08F
:1005E00042462068031D23600068C0E9001205E050
:1005F0002068011D21600068C0E900A828467BE74B
:100600002DE9FF5F1D464FF0FF3BD5E901469146BE
:100610005F464FF00008A9697F1C01988847296A46
:10062000824688470028F6D1BAF1FF3F0CD024F467
:10063000C064002E19DD600614D5BAF12B0F09D065
:10064000BAF12D0F0ED103E0584604B0BDE8F09F7B
:1006500044F48064A9697F1C01988847761E82460D
:10066000002E02DDBAF1300F03D0B9F1000F26D011
:1006700032E0A969761E44F400747F1C0198884713
:100680008246002E05DDBAF1780F06D0BAF1580F78
:1006900003D0B9F1000F10D01EE0B9F1000F02D065
:1006A000B9F1100F18D1A969761E24F400747F1CCB
:1006B000019888478246102002E0082000E00A20C6
:1006C000814609E008FB0908A969761E44F4007414
:1006D0007F1C019888478246002E05DD494650461A
:1006E00000F069FC0028EDDAE96901988847A00567
:1006F00002D46FF00100A8E7E00725D1600613D50A
:10070000600502D5C8F1000000E0404629680A1DD6
:100710002A600968220501D5087015E0220701D575
:10072000088011E008600FE02868011D296000685A
:10073000210502D580F8008006E0210702D5A0F847
:10074000008001E0C0F8008038467EE72DE9FF5FB9
:10075000D2E901A74FF00008916999461446DDF8E7
:1007600038B0464601988847054659EA0B0005D03F
:1007700009E0A169761C019888470546216A284648
:1007800088470028F5D1681C03D05FEACA7005D0FD
:1007900015E04FF0FF3004B0BDE8F09F2068011D68
:1007A0002160D0F800800AE05FEACA7001D108F841
:1007B000015BA169761C7F1E019888470546002FC2
:1007C0001ADD681C18D0B9F1000F0DD0E81705EB41
:1007D000D060421120F01F0059F822102A1A01207F
:1007E00090400142E0D107E0BBF1000FDCD1216A6B
:1007F000284688470028D7D0E16901988847BBF18F
:10080000000F07D1002E05DD5FEACA7002D100217A
:1008100088F80010A068B84203DDBBF1000F03D0D8
:1008200017B16FF00100B6E73046B4E72DE9FF4F8E
:10083000087883B09946FF2805D0491C2D2804D09C
:100840000024002008E000200BE00124F9E700EB81
:10085000800003EB4000491C0B78FF2BF7D104B15B
:10086000404200230293147819461D462D2C01D0D6
:100870002B2C04D1521C2D2C13D000240294AA46F8
:100880001478FF2C0FD00A25A3FB057801FB058106
:100890004FF0000C03FB0C11521CE3194AEB010151
:1008A000EEE70124EAE7814453EA010002D019F59A
:1008B000C87F06DA03980021C0E9001107B0BDE83F
:1008C000F08F0025AE4E2F46DFF8B882184600F0B4
:1008D00074FDCDE90001B9F1000002DAC9F10004AC
:1008E00000E004460023A74A1AEB030B42EB045A2C
:1008F00012E0E00707D02A4633463846414600F06A
:1009000020FA074688462A4633461046194600F024
:1009100018FA05460E466410002CEAD1DDE9000104
:10092000B9F1000F5A46534606DA00F07CFA3A460F
:10093000434600F078FA05E000F003FA3A464346F1
:1009400000F0FFF9029A0AB181F00041039AC2E96E
:100950000001B3E72DE9FF4F1F468DB0D7E90146EF
:100960004FF0FF382E2045464FF000090B90B96933
:100970006D1C0E988847396A824688470028F6D150
:10098000BAF1FF3F0AD024F4D064002E11DDBAF191
:100990002B0F08D0BAF12D0F0BD102E0404611B059
:1009A0008DE744F48064B9696D1C0E9888478246CF
:1009B000761E6946600501D52D2000E02B208DF8BC
:1009C000000001F1010B0DF1200809E0B9696D1C6F
:1009D0000E98884782460F9844F40074761E05608E
:1009E000002E02DDBAF1300FF0D00B998A453ED1CE
:1009F00044F0800406E00F99681CA9F1010944F451
:100A000000740860B9696D1C761E0E98884782468E
:100A10003028F0D02BE00B998A4505D1200603D46D
:100A200044F08004761E18E0504673F0B1FC08B321
:100A30000DF11302761EAAF1300044F400749345C0
:100A400006D20BF8010B200607D5A9F1010003E03F
:100A5000200602D409F101008146A00502D50F99B4
:100A6000681C0860B9696D1C0E9888478246002E84
:100A7000D1DC53E0002E51DDBAF1650F02D0BAF19E
:100A8000450F4BD1A00549D5B9696D1C24F44074BC
:100A9000761E0E9888478246002E0CDD2B2804D047
:100AA000BAF12D0F07D144F48074B9696D1C0E980A
:100AB00088478246761EE00501D52D2100E02B21D6
:100AC00008F8011BCDF82C8021E00DF12901761EDC
:100AD00044F4007488450CD2AAF1300010F0FF00F5
:100AE00088F8000002D10B99884509D908F101085E
:100AF00006E0E00501D5244801E042F20F7081468E
:100B0000B9696D1C0E98884782460F980560002EC3
:100B100004DD504673F03CFC0028D6D1F9690E98EC
:100B20008847FF208BF8000088F80000002006901E
:100B300007904B466A4608A906A8FFF777FEA0056E
:100B400002D46FF001002AE714F0240F0AD0E00766
:100B500014D1DDE906123868031D3B600068C0E966
:100B600000120BE0DDE9060100F033FC0146E0076E
:100B700004D13868021D3A600068016028460EE71B
:100B8000000014400000F03FF1D8FFFF026811445C
:100B90001378016018467047D160044951610449D7
:100BA000116200211161114600F014BA8D0B020888
:100BB000AD0F0208426842B1016811F8013B23B150
:100BC000521EC0E90012184670470121C160881EFC
:100BD000704742685AB1C368016843B983688B4261
:100BE00005D0491E521CC0E90012002070474FF08A
:100BF000FF3070472DE9FE4F804681EA0300C00FA9
:100C00000C46009021F0004123F00045B8EB0200B3
:100C1000A94105D24046214690461C460B46024655
:100C200023F00040104347D0270DC7F30A00C3F359
:100C30000A510290401A019040286BDAC3F3130066
:100C400040F4801B0098924620B10023D2EB030AA7
:100C500063EB0B0B01985946C0F140025046FFF779
:100C600005FC06460D4650465946019A00F08CF99F
:100C700010EB08006141002487EA115284EAE7730F
:100C80001A4340D0009A62B3019A012A4FEA0752F0
:100C900015DC001B61EB02014FF0004202EA075233
:100CA000CDE90042001C41F5801132462B4600F090
:100CB00036FB03B0BDE8F08F40462146F9E7001B44
:100CC00061EB0201001C41F5801300185B41201804
:100CD000A2F5001747EB030140EAD570B6196D4144
:100CE00011E06D084FEA360645EAC0754FEA075233
:100CF000001B61EB0201001C41F5801149084FEA1D
:100D000030000019514132462B4603B0BDE8F04F88
:100D100000F0F6BA0098012240000023D0EB020256
:100D200063EBE073009821464FEAE074B8EB0000F3
:100D300061EB0401E9E783F000435BE781F00041E8
:100D400058E72DE9FE4F81EA030404F0004421F046
:100D5000004100944FF0000B23F0004350EA0104DF
:100D60005ED052EA03045BD0C3F30A54C1F30A55C0
:100D70002C44A4F2F3340194A0FB0254C1F31301F8
:100D800041F48011C3F3130343F4801301FB0244C5
:100D900000FB034E840A970A44EA815447EA8357CA
:100DA000A4FB076802958D0A05FB07854FEA932C83
:100DB00004FB0C542705029D4FEA065847EA1637F4
:100DC000B5EB08056EEB070C870E920E47EA81170C
:100DD00042EA8312A7FB0201B6EB0B0164EB0004AD
:100DE0002B0D43EA0C335E1844EB1C50DA46514697
:100DF000E7FB0201C5F313044FEA0B3343EA145334
:100E00004FEA0432019C43EA0603A4F10C04029465
:100E1000009CCDE900B400F082FA03B0BDE8F08F89
:100E200000200146F9E72DE9F04D81EA030404F0C2
:100E3000004B21F0004514464FF0000A23F000411A
:100E400050EA050220D054EA01021DD0C5F30A572A
:100E50000246C5F31303C1F31300C1F30A5640F46D
:100E6000801543F48013A7EB0608101BD64608F242
:100E7000FD3873EB050002D308F1010801E0921878
:100E80005B41B8F1000F03DA00200146BDE8F08DA8
:100E900000204FF48011064684460EE0171B73EBCA
:100EA000050705D3121B63EB050306434CEA010C4F
:100EB00049084FEA300092185B4150EA0107EDD132
:100EC00052EA030012D082EA040083EA05010843D3
:100ED00005D0101BAB4106D20122002306E0002200
:100EE0004FF0004302E06FF0010253101AEB0600CE
:100EF0004CEB085110EB0A0041EB0B01BDE8F04D43
:100F000000F0FEB9C1F30A52C1F3130140F2FF33FE
:100F100041F480119A4202DA00200146704740F203
:100F200033439A42A2F2334202DC5242FFF7ADBA97
:100F3000FFF79CBA30B5041E71F1000404DB4FF0DA
:100F40000044404264EB0101141E73F1000405DB10
:100F50001C464FF00043524263EB0403994208BF22
:100F6000904230BD064C074D06E0E06840F00103BA
:100F700094E8070098471034AC42F6D3FFF790F995
:100F80008C930908CC930908202A06DBCB17203A5A
:100F900041FA02F043EAE07306E041FA02F3D0407E
:100FA000C2F120029140084319467047C0B24FF485
:100FB000F05100F02BBA3A2800D2303820F020024D
:100FC000412A01D3A2F13700884201D34FF0FF300C
:100FD000704700002DE9F34F8BB04FF0000801F18E
:100FE0000C000C464FF0010B46460DF1080A01902B
:100FF0006269012101989047051E2DD0252D2CD026
:10100000216A8847C0B16269012101989047216A2D
:1010100088470028F7D1411E62690198904700E097
:10102000761CA1690B988847216A88470028F7D168
:10103000E1690B988847DBE7A1690B988847074669
:10104000A84201D1761CD3E7E1690B9888477F1C41
:1010500002D1B8F1000F6FD046E1002762693D462A
:101060003946019890472A2804D1626901210198E4
:1010700090470125DFF88492626901210198904729
:10108000A0F130010A290AD24F45E5DC07EB8701C0
:1010900000EB4107303FDFD445F01005ECE7E906EF
:1010A00001D46FF000476C280AD04C2814D068286F
:1010B00015D06A280DD074281CD07A281AD01DE0CB
:1010C00062690121019890476C2802D045F004051F
:1010D00014E045F002050DE045F020050AE06269E4
:1010E000012101989047682802D045F0080505E0E5
:1010F00045F400656269012101989047C4E90157F0
:1011000065283DD019DC58287AD00CDC452837D02A
:1011100004DC252826D0412831D131E046282FD0C3
:1011200047282CD12CE05B2877D0612828D0632871
:101130007CD0642823D15AE0D0E06F2848D008DC66
:1011400066281DD067281BD0692821D06E2816D1AB
:1011500027E0702845D0732868D0752847D07828B4
:101160000DD14DE0A1690B988847054625283FF42D
:1011700069AFE1690B9888476D1C3FF46AAFB3E033
:1011800023466A466FF001000B99FFF7E3FB9EE0F0
:1011900045F040006060A80723464FF0000236D4B7
:1011A0003EE0E8077FF447AF2068011D216000683A
:1011B000290501D506701BE7290701D5068017E729
:1011C000A90703D5F117C0E9006111E706600FE731
:1011D00045F040006060A80723464FF0080216D48F
:1011E0001EE040F60E0125EA0100606016E045F0C1
:1011F00040006060A80723464FF00A0207D40FE0C2
:1012000045F040006060A80708D5234610226FF023
:1012100001000B99FFF749F959E007E02346102236
:101220006FF001000B99FFF7EBF950E04FF0000968
:101230004F464B46632802D05B2806D040E0E806C4
:1012400001D40120A06001273AE0626901210198E0
:1012500090475E2805D14FF001096269494601981F
:101260009047216939B900210A46534643F82120A5
:10127000491C0829FADBB0B3216969B9C11700EB31
:10128000D16253110AEB830122F01F02821A01205E
:101290000B68904003430B606269012101989047FD
:1012A0005D28E8D1B9F1000F09D00020514651F86E
:1012B0002020D24341F82020401C0828F7DB02AB55
:1012C000224600976FF001000B99FFF73FFA0028C4
:1012D0000CDA401C08D1BBF1000F05D04FF0FF30F5
:1012E0000DB0BDE8F08FFFE74046F9E7E90701D10F
:1012F00008F1010806444FF0000B79E6CCCCCC0C89
:1013000010B5141E73F1000408DA401C41F100010D
:1013100092185B411A4301D120F0010010BD2DE964
:10132000F04D92469B4611B1B1FA81F202E0B0FA5B
:1013300080F220329046FFF799F804460F4640EAC3
:101340000A0041EA0B0153465A46084313D011469E
:1013500053EA010019D0C8F140025046FFF795F852
:1013600005460E46504659464246FFF77FF8084369
:1013700005D0012004E020463946BDE8F08D00206C
:10138000054346EAE0762C4337430A986305E40AAE
:10139000A0EB08000022FD0A44EA47540A3002D5B7
:1013A00000200146E9E7010510196941DDE908451A
:1013B00000196941BDE8F04DA2E70EB540F2334295
:1013C00002920022CDE900221346FFF7A8FF03B0E6
:1013D00000BD01F0004330B421F0004150EA0102A9
:1013E00006D00A0DA2F56072C1F31301002A02DCD7
:1013F00030BC00207047440F44EAC104C100E0182B
:1014000030BC00EBC25000F015B800007F2801D9B5
:10141000002208E0064A02EB5002C007127800D111
:10142000120902F00F0201209040084070470000AE
:10143000EE4A09080029A8BF7047401C490008BFB0
:1014400020F00100704710B4B0FA80FC00FA0CF0F4
:1014500050EA010404BF10BC704749B1CCF120042C
:1014600021FA04F411FA0CF118BF012121430843B9
:10147000A3EB0C01CB1D4FEA00614FEA102042BFE5
:10148000002010BC704700EBC35010440029A4BFDB
:1014900010BC7047401C490008BF20F0010010BC80
:1014A000704770B58C1810F8015B15F0070301D177
:1014B00010F8013B2A1106D110F8012B03E010F8B7
:1014C000016B01F8016B5B1EF9D12B0705D40023DA
:1014D000521E0DD401F8013BFAE710F8013BCB1A7C
:1014E000921C03E013F8015B01F8015B521EF9D571
:1014F000A142D8D3002070BD80B584B0039003987A
:10150000006842F20001C4F20201884209D0FFE7FC
:101510000398006842F20011C4F20201884209D126
:10152000FFE742F20830C4F20200006810F4403FC6
:1015300009D129E046F20830C5F60200006810F42F
:10154000403F21D0FFE70AF013FD02900398406866
:101550000190B0F5803F0AD0FFE70198B0F5003F59
:1015600005D0FFE70198B0F5403F07D00AE00398A7
:10157000C1880298B0FBF1F0029004E00298800864
:10158000029000E0FFE75FE04FF40020002108F048
:10159000E7FB0290039840680090B0F5802F32D0AE
:1015A000FFE70098B0F5002F2DD0FFE70098B0F5C9
:1015B000402F28D0FFE70098B0F5801F23D0FFE729
:1015C0000098B0F5A01F1ED0FFE70098B0F5C01F2F
:1015D00019D0FFE70098B0F5E01F1FD0FFE7009893
:1015E000B0F5001F1ED0FFE70098B0F5101F1DD00A
:1015F000FFE70098B0F5201F1CD0FFE70098B0F57A
:10160000301F1BD01EE0039841686FF0010000EA14
:1016100051410298B0FBF1F0029014E002980009E9
:10162000029010E00298400902900CE002988009B4
:10163000029008E00298C009029004E00298000AB3
:10164000029000E0FFE7FFE705F08EFF41F20301A3
:10165000884217D8FFE7029842F60151C0F23111D3
:10166000884207D3FFE703980168886840F48070D8
:10167000886006E003980168886820F480708860BC
:10168000FFE743E0029840080290029845F6106197
:10169000C0F25F01884209D8FFE7039800688068BC
:1016A00020F440700399096888602EE002984BF698
:1016B0002041C0F2BE0188420AD8FFE703980068C3
:1016C0008068012161F309200399096888601BE0A3
:1016D000029847F64001C0F27D1188420AD8FFE720
:1016E000039800688068022161F309200399096862
:1016F000886008E003980068806840F440700399AF
:1017000009688860FFE7FFE7FFE7FFE704B080BDF7
:1017100080B58AB008900791002005900798049042
:10172000089800680FF008FB0290089800680FF016
:10173000CBFA0190029828B9FFE70198002800F041
:10174000A880FFE708980068C0688001002836D5A7
:10175000FFE70898407D012831D1FFE70898007D18
:1017600001282CD1FFE701200490FFE708980068CA
:10177000006800F040010020B0EB911F1AD1FFE794
:1017800005984DF60041C0F20C0188420ED3FFE7E8
:101790000899486D40F0100048650899886D40F040
:1017A0000100886501208DF8270076E0059801305A
:1017B0000590DBE70898016840200860FFE704987F
:1017C000022813D0FFE7089800680FF0B5FA60B15F
:1017D000FFE7089800680FF097FA28B9FFE7089824
:1017E00000680FF0EDFAFFE7FFE7FFE70498012834
:1017F00013D0FFE7089800680FF066FA60B1FFE7C2
:10180000089800680FF080FA28B9FFE70898006888
:101810000FF062FAFFE7FFE7FFE704980090022865
:1018200007D0FFE70098032806D1FFE70C200390BC
:1018300005E00820039002E004200390FFE705F094
:101840009BFE0690FFE708980068806803990842AD
:101850001ED0FFE705F090FE0699401A062816D321
:10186000FFE7089800688068039908420ED0FFE7F8
:101870000899486D40F0100048650899886D40F05F
:101880000100886501208DF8270006E0FFE7DAE710
:10189000FFE700208DF82700FFE79DF827000AB03A
:1018A00080BD00000000000080B584B00290029866
:1018B00000680FF029FA0090029800680FF02CFAE7
:1018C00000284BD0FFE70098002847D1FFE7029897
:1018D0000068806800F00D00012809D1FFE7029838
:1018E00000680FF09DF902980168032008600DE080
:1018F0000299486D40F0100048650299886D40F0EB
:101900000100886501208DF80F002BE005F034FE02
:101910000190FFE7029800688068C007E8B1FFE720
:1019200005F02AFE0199401A032815D3FFE7029813
:1019300000688068C00770B1FFE70299486D40F009
:10194000100048650299886D40F00100886501200B
:101950008DF80F0006E0FFE7DCE7FFE700208DF8D9
:101960000F00FFE79DF80F0004B080BD00000000ED
:1019700080B586B00490049800680FF0CDF9002877
:1019800040F09280FFE70498006880683F21C8F229
:10199000000108420ED0FFE70499486D40F01000A6
:1019A00048650499886D40F00100886501208DF834
:1019B00017007DE0049800680FF04EF905F0DCFD9B
:1019C000039004980168012042F20002C4F202026E
:1019D000914201900CD0FFE7049800684DF6007129
:1019E000CBF6FD710844B0FA80F040090190FFE7A2
:1019F0000198C10746F20030C5F6020000291CBF5D
:101A000042F20030C4F202000FF056F9029004983E
:101A1000006842F20011C4F20201884206D1FFE7D9
:101A200042F20000C4F20200009003E00498006853
:101A30000090FFE7009804990968884203D0FFE707
:101A4000029880BBFFE7FFE7049800680068C007C2
:101A500040BBFFE7049800680FF05EF928B9FFE784
:101A6000049800680FF0F8F8FFE705F085FD03998A
:101A7000401A032815D3FFE7049800680068C007E0
:101A800070B9FFE70499486D40F01000486504996B
:101A9000886D40F00100886501208DF8170007E08F
:101AA000FFE7D1E7FFE7FFE700208DF81700FFE72A
:101AB0009DF8170006B080BD80B584B00AF098FA92
:101AC000039044F60C00C4F20000006802900298F3
:101AD000C0F30B10ADF80600029800F00F008DF86F
:101AE000050044F60000C4F20000006880B2C00B9C
:101AF0008DF804009DF8040018B3FFE79DED030A7C
:101B0000B8EE400AB7EEC00ABDF8060001EE100AB2
:101B1000B8EEC11B9DF8050002EE100AB8EEC22B0C
:101B2000B3EE003B82EE032B31EE021BB2EE002B34
:101B300021EE021B80EE010BB7EEC00B8DED000A0B
:101B400020E09DED030AB8EE400AB7EEC00ABDF8EA
:101B5000060001EE100AB8EEC11B9DF8050002EE6A
:101B6000100AB8EEC23BB3EE002B83EE023B31EE1F
:101B7000031B21EE021B80EE010BB7EEC00B8DEDB7
:101B8000000AFFE79DED000ABCEEC00A42F22440C5
:101B9000C2F2024080ED000A04B080BD00000000E7
:101BA00010B588B08C4686460B980A998DF81FE0D0
:101BB0008DF81EC0069205938DF813108DF8120053
:101BC00006F012F901208DF80000069801900598A2
:101BD0008DF8080003208DF80B009DF813008DF898
:101BE0000F009DF812008DF80E0000208DF80D00FA
:101BF0009DF81F108DF801109DF81E108DF80A1029
:101C00008DF809008DF80C00684606F0ADF8042048
:101C100006F0FEF808B010BD80B582B001208DF846
:101C200007000020C5F602004FF4004105F06CFCEF
:101C300020B1FFE700208DF80700FFE79DF80700BF
:101C400002B080BD0000000080B582B00190019913
:101C500042F68C00C2F202400BF052FE02B080BD90
:101C600080B542F68C00C2F202400BF071FE0438DF
:101C700018BF012080BD000080B582B000208DF823
:101C8000060000F02DF8012804D0FFE702208DF8AF
:101C900007001FE042F68C00C2F202400CF0E8F8A8
:101CA0008DF806009DF8060078B9FFE742F68C0033
:101CB000C2F202404FF480410BF09AFB20B1FFE7E3
:101CC00001208DF80600FFE7FFE79DF806008DF87C
:101CD0000700FFE79DF8070002B080BD000000008C
:101CE00080B582B001208DF80700FFF795FF20B97D
:101CF000FFE700208DF80700FFE79DF8070002B01E
:101D000080BD00000000000080B584B00390029107
:101D1000019200208DF803000399029A019B42F67C
:101D20008C00C2F202400CF05FFA20B1FFE7012004
:101D30008DF80300FFE79DF8030004B080BD0000AC
:101D400080B582B00120ADF8060040F2E810C2F282
:101D5000024000680DF1060100231A465AF09CFE6D
:101D600002B080BD0000000080B584B003900291F5
:101D7000019200208DF803000399029A019B42F61C
:101D80008C00C2F202400CF0EBFA20B1FFE7012018
:101D90008DF80300FFE79DF8030004B080BD00004C
:101DA00080B582B00220ADF8060040F2E810C2F221
:101DB000024000680DF1060100231A465AF06CFE3D
:101DC00002B080BD00000000FFE7FEE70000000059
:101DD00083B04EF61450CEF2000000688003002855
:101DE00001D5FFE71AE0BFF34F8FBFF36F8F4EF6B9
:101DF0005071CEF2000100200860BFF34F8FBFF397
:101E00006F8F4EF61451CEF20001086840F4003096
:101E10000860BFF34F8FBFF36F8FFFE74EF614508C
:101E2000CEF200000068C003002801D5FFE73CE0C7
:101E30004EF68451CEF2000100200860BFF34F8FB0
:101E40004EF68050CEF20000006802900298C0F377
:101E50004E300190FFE70298C0F3C9000090FFE701
:101E600001990098800761F34D104EF66071CEF233
:101E7000000108600098411E00910028F0D1FFE7A2
:101E80000198411E01910028E5D1FFE7BFF34F8F74
:101E90004EF61451CEF20001086840F4803008601C
:101EA000BFF34F8FBFF36F8FFFE703B070470000A2
:101EB00080B542F2CC60C2F2024002F0E1FE80BD89
:101EC00083B002900298016801201022C4F202023D
:101ED0009142009000F0A380FFE702980168012082
:101EE0002822C4F202029142009000F09880FFE79D
:101EF0000298016801204022C4F20202914200903F
:101F000000F08D80FFE70298016801205822C4F29A
:101F100002029142009000F08280FFE7029801687F
:101F200001207022C4F202029142009077D0FFE7B4
:101F30000298016801208822C4F2020291420090B6
:101F40006DD0FFE7029801680120A022C4F20202CE
:101F50009142009063D0FFE7029801680120B82207
:101F6000C4F202029142009059D0FFE70298016842
:101F7000012040F21042C4F20202914200904ED081
:101F8000FFE702980168012040F22842C4F20202F1
:101F90009142009043D0FFE702980168012040F28F
:101FA0004042C4F202029142009038D0FFE702980A
:101FB0000168012040F25842C4F2020291420090AE
:101FC0002DD0FFE702980168012040F27042C4F270
:101FD00002029142009022D0FFE70298016801209E
:101FE00040F28842C4F202029142009017D0FFE70B
:101FF00002980168012040F2A042C4F2020291421C
:1020000000900CD0FFE7029800684FF64831CBF6FD
:10201000FD710844B0FA80F040090090FFE7009895
:10202000C00740B3FFE70298007810384AF6AB21AA
:10203000CAF6AA21A0FB011000090190019800F046
:10204000070144F63E30C0F60900405C0299C865BD
:102050000198042807D3FFE702990868042262F375
:102060000900886506E00299086840F2FF32904353
:102070008865FFE705E00299086820F0FF008865A1
:10208000FFE70298806D03B0704700000000000079
:1020900084B00390039800680190039801680120C0
:1020A00045F20842C5F60202914200904ED0FFE789
:1020B00003980168012045F21C42C5F602029142D4
:1020C000009043D0FFE703980168012045F23042B9
:1020D000C5F602029142009038D0FFE703980168EC
:1020E000012045F24442C5F60202914200902DD0F3
:1020F000FFE703980168012045F25842C5F6020245
:102100009142009022D0FFE703980168012045F238
:102110006C42C5F602029142009017D0FFE7039887
:102120000168012045F28042C5F60202914200900A
:102130000CD0FFE7039800684AF66C31CAF2FD71D3
:102140000844B0FA80F040090090FFE70098C0070B
:1021500010B3FFE70398007808384CF6CD41CCF671
:10216000CC41A0FB011000090290029945F6000045
:10217000C5F6020000EB810003990866039945F655
:102180008000C5F602004866029800F01F01012099
:1021900088400399886635E00398007810384AF63D
:1021A000AB21CAF6AA21A0FB0110000902900198F8
:1021B00040F2B841C4F2020188420CD8FFE701980E
:1021C00040F21041C4F20201884204D3FFE70298B2
:1021D00008300290FFE7029940F60000C4F20200C6
:1021E00000EB810003990866039940F68000C4F271
:1021F00002004866029800F01F0101208840039900
:102200008866FFE704B0704783B0029002980079B7
:1022100001900198002800F08A80FFE701980828C3
:1022200000F28580FFE702980168012045F208422C
:10223000C5F60202914200904ED0FFE70298016875
:10224000012045F21C42C5F602029142009043D0A3
:10225000FFE702980168012045F23042C5F602020C
:102260009142009038D0FFE702980168012045F2C2
:102270004442C5F60202914200902DD0FFE7029839
:102280000168012045F25842C5F6020291420090D1
:1022900022D0FFE702980168012045F26C42C5F6A2
:1022A00002029142009017D0FFE7029801680120D6
:1022B00045F28042C5F60202914200900CD0FFE741
:1022C000029800684AF66C31CAF2FD710844B0FA0F
:1022D00080F040090090FFE70098C00780B1FFE759
:1022E000019945F6FC00C5F6020000EB8100029959
:1022F000C866029945F64010C5F6020008670FE06F
:10230000019940F6FC00C4F2020000EB8100029942
:10231000C866029940F64010C4F202000867FFE761
:102320000198411E0120884002994867FFE703B0E9
:10233000704700000000000085B0049000208DF878
:102340000F000498806918BBFFE70498806A029028
:1023500003281BD80299DFE801F0020D0218049847
:1023600090F82F00C00720B1FFE701208DF80F0083
:10237000FFE70CE00498C06AB0F1C07F04D1FFE72A
:1023800001208DF80F00FFE701E000E0FFE747E0E4
:1023900004988069B0F5005F26D1FFE70498806A51
:1023A000019003281ED80199DFE801F0020602110E
:1023B00001208DF80F0016E0049890F82F00C00758
:1023C00020B1FFE701208DF80F00FFE70BE0049834
:1023D000C06AB0F1C07F04D1FFE701208DF80F0083
:1023E000FFE700E0FFE71AE00498806A0090032806
:1023F00004D3FFE70098032804D00EE001208DF8F5
:102400000F000BE0049890F82F00C00720B1FFE701
:1024100001208DF80F00FFE700E0FFE7FFE7FFE78F
:102420009DF80F0005B0704789B00890079106929B
:1024300005930898806D04900898806D0390089823
:10244000016801201022C4F202029142029000F0C1
:102450000381FFE70898016801202822C4F20202E4
:102460009142029000F0F880FFE70898016801208F
:102470004022C4F202029142029000F0ED80FFE798
:102480000898016801205822C4F202029142029089
:1024900000F0E280FFE70898016801207022C4F292
:1024A00002029142029000F0D780FFE7089801688D
:1024B00001208822C4F202029142029000F0CC80F6
:1024C000FFE7089801680120A022C4F202029142AD
:1024D000029000F0C180FFE7089801680120B8224F
:1024E000C4F202029142029000F0B680FFE7089821
:1024F0000168012040F21042C4F2020291420290AF
:1025000000F0AA80FFE708980168012040F2284205
:10251000C4F202029142029000F09E80FFE7089808
:102520000168012040F24042C4F20202914202904E
:1025300000F09280FFE708980168012040F25842BD
:10254000C4F202029142029000F08680FFE70898F0
:102550000168012040F27042C4F2020291420290EE
:102560007AD0FFE708980168012040F28842C4F25F
:102570000202914202906FD0FFE7089801680120A3
:1025800040F2A042C4F202029142029064D0FFE7FE
:1025900008980168012040F2B842C4F20202914258
:1025A000029059D0FFE708980168012045F20842DF
:1025B000C5F60202914202904ED0FFE708980168EA
:1025C000012045F21C42C5F602029142029043D01E
:1025D000FFE708980168012045F23042C5F6020283
:1025E0009142029038D0FFE708980168012045F237
:1025F0004442C5F60202914202902DD0FFE70898AE
:102600000168012045F25842C5F60202914202904B
:1026100022D0FFE708980168012045F26C42C5F618
:1026200002029142029017D0FFE70898016801204A
:1026300045F28042C5F60202914202900CD0FFE7BB
:10264000089800684AF66C31CAF2FD710844B0FA85
:1026500080F040090290FFE70298C00770B1FFE7E1
:102660000898416E806E48600898C06E28B1FFE7F8
:102670000898016F406F4860FFE7FFE7089801681E
:1026800001201022C4F202029142019000F0A380C6
:10269000FFE70898016801202822C4F20202914253
:1026A000019000F09880FFE708980168012040221F
:1026B000C4F202029142019000F08D80FFE7089879
:1026C000016801205822C4F202029142019000F0F8
:1026D0008280FFE70898016801207022C4F202029C
:1026E0009142019077D0FFE7089801680120882285
:1026F000C4F20202914201906DD0FFE70898016890
:102700000120A022C4F202029142019063D0FFE7AF
:10271000089801680120B822C4F202029142019097
:1027200059D0FFE708980168012040F21042C4F236
:102730000202914201904ED0FFE708980168012003
:1027400040F22842C4F202029142019043D0FFE7D6
:1027500008980168012040F24042C4F2020291420E
:10276000019038D0FFE708980168012040F25842F4
:10277000C4F20202914201902DD0FFE7089801684F
:10278000012040F27042C4F202029142019022D034
:10279000FFE708980168012040F28842C4F2020273
:1027A0009142019017D0FFE708980168012040F29C
:1027B000A042C4F20202914201900CD0FFE70898B7
:1027C00000684FF64831CBF6FD710844B0FA80F04E
:1027D00040090190FFE70198C00750B3FFE7089850
:1027E000C06D00F01F013F20884004998860089860
:1027F0000168086820F48020086005980899096835
:10280000486008988068402809D1FFE70698089931
:1028100009688860079808990968C86008E00798FF
:10282000089909688860069808990968C860FFE7F0
:1028300082E008980168012045F20842C5F60202CC
:10284000914200904ED0FFE708980168012045F2C0
:102850001C42C5F602029142009043D0FFE708985F
:102860000168012045F23042C5F602029142009013
:1028700038D0FFE708980168012045F24442C5F6C8
:102880000202914200902DD0FFE7089801680120D4
:1028900045F25842C5F602029142009022D0FFE76D
:1028A00008980168012045F26C42C5F60202914287
:1028B000009017D0FFE708980168012045F2804298
:1028C000C5F60202914200900CD0FFE7089800681C
:1028D0004AF66C31CAF2FD710844B0FA80F0400942
:1028E0000090FFE70098C00720B3FFE70898C06D8D
:1028F00000F01F010120884003994860059808995D
:102900000968486008988068402809D1FFE7069860
:10291000089909688860079808990968C86008E0FC
:102920000798089909688860069808990968C86036
:10293000FFE700E0FFE7FFE709B070470000000095
:10294000704700000000000082B001908DF8031075
:1029500000208DF802008DF80100FFE79DF80100CE
:102960009DF80310B0EB510F22DAFFE701989DF8B4
:102970000110405C8DF8020001999DF803009DF85C
:102980000120801A084410F8010C88549DF80200B8
:10299000019A9DF803109DF80130C91A114401F8FD
:1029A000010CFFE79DF8010001308DF80100D5E72B
:1029B00002B070470000000081B0EFF3108072B6E3
:1029C0000090FFE7FEE7000080B582B00190009123
:1029D00001980099002200F003F802B080BD0000C9
:1029E00084B0039002918DF8072001208DF8060035
:1029F00000208DF8050040F2DC30C2F20240407A3F
:102A0000002827DCFFE740F2DC33C2F202430093E8
:102A1000597A0020585403995A7A03EB8202516084
:102A20009DF807105A7A1A441172597A4A1C5A7240
:102A30008DF805109DF805103031029A1170029A38
:102A40003A215170029A2F2191700299C8708DF825
:102A50000600FFE79DF8060004B070470000000084
:102A600080B5AAB02690259100208DF89300219082
:102A7000269890F83800012801D1FFE700E0FFE731
:102A80002598C0680021C4F2FF71884201D0FFE799
:102A90001EE02698006842F20001C4F2020188425A
:102AA00001D1FFE7FFE72698006842F20011C4F267
:102AB0000201884201D1FFE7FFE72698006846F24D
:102AC0000001C5F60201884201D1FFE7FFE7FFE7F9
:102AD000FFE7269890F85000012804D1FFE7022074
:102AE0008DF89F00F1E32699012081F85000FFE75F
:102AF000FFE7269800680EF01FF9002840F0D18308
:102B0000FFE72598C078000600282DD4FFE7259818
:102B10000068000330B9FFE725980068C0F38460BF
:102B20001E9015E02598006890FAA0F0289028984B
:102B300020B9FFE720208DF8A70005E02898B0FA1B
:102B400080F08DF8A700FFE79DF8A7001E90FFE733
:102B50001E9800F01F01012000FA01F2269801687A
:102B6000C8691043C861FFE72698006825990A687C
:102B700049680EF0F5F8269800680EF0DDF8209010
:102B8000269800680EF0A0F81F902098002840F0CA
:102B9000B580FFE71F98002840F0B080FFE7269837
:102BA0000068259A116892680EF04AF941F2000017
:102BB000C5F60040006800F07040B0F1805F0BD1B6
:102BC000FFE72598406926990968C96801F01C014A
:102BD000490888401D901FE026980068C068C0061C
:102BE00000280BD4FFE72598406926990968C96831
:102BF00001F01C01490888401C900AE025984069B2
:102C000026990968C96801F01001490888401C909C
:102C1000FFE71C981D90FFE71D98239025980069F9
:102C2000042821D0FFE72698006825990A680969D9
:102C3000239B0EF071F926980068259A1169527E3F
:102C4000013AB2FA82F25209D2070EF081F92698BF
:102C50000068259A1169127E013AB2FA82F252098D
:102C6000D2020EF045F948E026980068006E00F0A8
:102C7000F84025990968B0EB816F07D1FFE72698E6
:102C80000168086E20F000400866FFE7269800689B
:102C9000406E00F0F84025990968B0EB816F07D1CC
:102CA000FFE726980168486E20F000404866FFE77D
:102CB00026980068806E00F0F84025990968B0EB0E
:102CC000816F07D1FFE726980168886E20F00040E9
:102CD0008866FFE726980068C06E00F0F8402599E6
:102CE0000968B0EB816F07D1FFE726980168C86ECD
:102CF00020F00040C866FFE7FFE7FFE7269800687E
:102D00000EF00AF8002840F0CB82FFE72698006812
:102D1000259A1168D2680EF0AFF82598C068002196
:102D2000C4F2FF71884240F05781FFE7269800689F
:102D30001B9042F20001C4F20201884240F0A480DC
:102D4000FFE7259800680221C0F23041884203D194
:102D5000FFE701201A9094E0259800680421C0F64E
:102D60006001884205D1FFE74020C1F6201019908C
:102D700084E0259800680821C0F69041884205D17A
:102D8000FFE78020C1F65050189074E02598006845
:102D90001021C1F2C001884206D1FFE740F20010C5
:102DA000C2F28010179063E0259800682021C1F2DC
:102DB000F041884206D1FFE740F20020C2F2B05055
:102DC000169052E02598006840F20041C2F60021BA
:102DD000884206D1FFE740F60000C2F63060159049
:102DE00040E02598006840F60001C2F63061884254
:102DF00006D1FFE741F20000C3F2602014902EE0FC
:102E00002598006841F20001C3F26021884206D192
:102E1000FFE742F20000C3F2906013901CE0259897
:102E200000680021C4F22131884205D1FFE700206B
:102E3000C4F2527012900CE0259801680022C4F68A
:102E400084320020914204BF0020C4F6B870129072
:102E5000FFE712981390FFE713981490FFE7149878
:102E60001590FFE715981690FFE716981790FFE763
:102E700017981890FFE718981990FFE719981A907B
:102E8000FFE71A981190A2E02698006842F200111C
:102E9000C4F20201884240F09480FFE72598006860
:102EA0000221C0F23041884203D1FFE70120109097
:102EB00084E0259800680421C0F66001884205D1AD
:102EC000FFE74020C1F620100F9074E025980068BD
:102ED0000821C0F69041884205D1FFE78020C1F665
:102EE00050500E9064E0259800681021C1F2C00196
:102EF000884206D1FFE740F20010C2F280100D9028
:102F000053E0259800682021C1F2F041884206D1A3
:102F1000FFE740F20020C2F2B0500C9042E025984A
:102F2000006840F20041C2F60021884206D1FFE766
:102F300040F60000C2F630600B9030E02598006843
:102F400040F60001C2F63061884206D1FFE741F247
:102F50000000C3F260200A901EE02598006841F24C
:102F60000001C3F26021884206D1FFE742F200006F
:102F7000C3F2906009900CE0259801680022C4F625
:102F800084320020914204BF0020C4F6B87009903A
:102F9000FFE709980A90FFE70A980B90FFE70B9864
:102FA0000C90FFE70C980D90FFE70D980E90FFE74F
:102FB0000E980F90FFE70F981090FFE71098089079
:102FC00002E000200890FFE708981190FFE71B98A7
:102FD00011990DF005FFFFE72598C078000600283D
:102FE00040F15D81FFE726980168012042F200026E
:102FF000C4F20202914207900CD0FFE726980068C5
:103000004DF60071CBF6FD710844B0FA80F040092E
:103010000790FFE70798C10746F20030C5F60200A7
:1030200000291CBF42F20030C4F202000DF034FE51
:103030002290269801684FF0010042F20002C4F28B
:103040000202914206900CD0FFE7269800684DF6E8
:103050000071CBF6FD710844B0FA80F0400906908B
:10306000FFE70698C10746F20030C5F602000029C6
:103070001CBF42F20030C4F2020042F20031C4F23E
:103080000201884212D1FFE742F20000C4F20200BE
:103090000DF042FE049042F20010C4F202000DF066
:1030A0003BFE014604980843059007E046F2000005
:1030B000C5F602000DF030FE0590FFE705980028E8
:1030C00040F0E380FFE7259800680021CCF68431CA
:1030D000884255D1FFE79DF88A00000600284FD4AA
:1030E000FFE72698006846F20001C5F60201884213
:1030F00045D1FFE726980168012042F20002C4F2A0
:103100000202914203900CD0FFE7269800684DF62A
:103110000071CBF6FD710844B0FA80F040090390CD
:10312000FFE70398C10746F20030C5F60200002908
:103130001CBF42F20030C4F20200229941F40001A7
:103140000DF0C6FE40F20800C2F2004000684FEAEF
:10315000901042F66351C0F23E51A0FB01104FEABD
:1031600090114FF0020000EB41002190FFE7219801
:1031700020B1FFE7219801382190F8E7FFE783E0CD
:10318000259800680021CCF25271884238D1FFE7BF
:103190009DF88B00C00798BBFFE72698006846F2B1
:1031A0000001C5F60201884229D1FFE7269801688F
:1031B000012042F20002C4F20202914202900CD0BD
:1031C000FFE7269800684DF60071CBF6FD710844C4
:1031D000B0FA80F040090290FFE70298C10746F27A
:1031E0000030C5F6020000291CBF42F20030C4F2D4
:1031F0000200229941F080710DF06AFEFFE742E083
:10320000259800680021CCF6B871884239D1FFE7D3
:103210009DF88A004006002833D4FFE7269800680E
:1032200046F20001C5F60201884229D1FFE726983F
:103230000168012042F20002C4F2020291420190B0
:103240000CD0FFE7269800684DF60071CBF6FD71B3
:103250000844B0FA80F040090190FFE70198C107E7
:1032600046F20030C5F6020000291CBF42F20030D1
:10327000C4F20200229941F480010DF029FEFFE71B
:1032800000E0FFE7FFE7FFE708E02699486D40F020
:103290002000486501208DF89300FFE7FFE7FFE776
:1032A00008E02699486D40F02000486501208DF81F
:1032B0009300FFE7FFE72699002081F85000FFE721
:1032C0009DF893008DF89F00FFE79DF89F002AB0BE
:1032D00080BD00000000000081B0009000980068F0
:1032E000006C01B07047000010B58CB00A9000204F
:1032F0008DF8270006900A9820B9FFE701208DF885
:103300002F00D1E10A98C06838B1FFE70A98007F22
:10331000012801D1FFE7FFE7FFE70A98406D50B9A8
:10332000FFE70A9800F0C4F90A99002088650A9915
:1033300081F85000FFE70A9800680DF0DDFC28B125
:10334000FFE70A9800680DF07BFCFFE70A98006829
:103350000DF0EAFCE8B9FFE70A9800680DF08CFC74
:1033600040F20800C2F200400068800942F6635152
:10337000C0F23E51A0FB0101012000EB911006902C
:10338000FFE7069820B1FFE7069801380690F8E7B6
:10339000FFE70A9800680DF0C7FC70B9FFE70A99CB
:1033A000486D40F0100048650A99886D40F00100B2
:1033B000886501208DF82700FFE70A9800680DF066
:1033C000BBFC07900A98406DC006002800F15E81A2
:1033D000FFE70798002840F05981FFE70A98406D01
:1033E00040F0020020F480700A9948650A9800684D
:1033F0000DF092FC002870D1FFE70A9801680120C7
:1034000042F20002C4F20202914203900CD0FFE7A4
:103410000A9800684DF60071CBF6FD710844B0FAC9
:1034200080F040090390FFE70398C10746F200309F
:10343000C5F6020000291CBF42F20030C4F20200AF
:1034400042F20031C4F20201884212D1FFE742F297
:103450000000C4F202000DF05FFC019042F2001087
:10346000C4F202000DF058FC014601980843029096
:1034700007E046F20000C5F602000DF04DFC029098
:10348000FFE7029840BBFFE70A980168012042F27B
:103490000002C4F20202914200900CD0FFE70A98A9
:1034A00000684DF60071CBF6FD710844B0FA80F06B
:1034B00040090090FFE70098C10746F20030C5F6CA
:1034C000020000291CBF42F20030C4F202000A9937
:1034D00049680DF0EDFCFFE7FFE704F045F841F225
:1034E0000401884213D3FFE70A98806810280ED1A0
:1034F000FFE70A994A7D086B40EA42308A68104328
:10350000097F40EA014040F00C0008900BE00A9966
:103510004A7D086B40EA42308A681043097F40EADE
:1035200001400890FFE70A98007F01280BD1FFE7D0
:103530000A98016A0020CFF6FE7000EB414108981E
:1035400008430890FFE70A98406A50B1FFE70A99DC
:10355000486A896A00F47870014308980843089023
:10356000FFE70A980068C0684CF20301CFF6F071DB
:103570000840089908430A990968C8600A980068D1
:103580000DF0DAFB05900A9800680DF09DFB0490A1
:103590000598002859D1FFE70498002855D1FFE786
:1035A0000A98017DC06A40EA813008900A98006854
:1035B000C06844F203018843089908430A990968DE
:1035C000C8600A9890F83800012829D1FFE70A98C6
:1035D000406A20B1FFE70A98806A08B9FFE7FFE771
:1035E0000A98006800694FF61E01CFF6004100EA14
:1035F00001020A9B1968DC6BD3F840E0D3F844C0A1
:103600000020CFF6FF7000EB044040EA0E0040EAD5
:103610000C009B6C1843104340F00100086106E069
:103620000A980168086920F001000861FFE70A981C
:103630000068006920F070400A9A1168526B1043CC
:1036400008610A98FDF758FFFFE70A98C06801284B
:103650000CD1FFE70A980068006B20F00F000A9A6F
:1036600011689269013A1043086306E00A980168FC
:10367000086B20F00F000863FFE70A98406D40F0E8
:10368000010020F002000A99486508E00A99486D97
:1036900040F01000486501208DF82700FFE79DF8F5
:1036A00027008DF82F00FFE79DF82F000CB010BD0C
:1036B00080B588B007900020069005900490039094
:1036C00002900798006842F20011C4F20201884299
:1036D0002CD1FFE7FFE744F2D840C5F602000168AD
:1036E00041F020010160006800F020000190019885
:1036F000FFE7FFE744F2E040C5F60200016841F051
:1037000004010160006800F0040000900098FFE7E9
:1037100002200290032003900020049040F6000055
:10372000C5F6020002A903F00BFDFFE708B080BD5B
:1037300080B58CB00A9009910A980168012042F284
:103740000002C4F20202914203900CD0FFE70A98F3
:1037500000684DF60071CBF6FD710844B0FA80F0B8
:1037600040090390FFE70398C10746F20030C5F611
:10377000020000291CBF42F20030C4F202000DF02A
:103780009BFA04900A980069082803D1FFE70820F3
:10379000079052E0049840B1FFE70498052804D050
:1037A000FFE70498092813D1FFE70A980068C0686A
:1037B000C00748B1FFE70A99486D40F0200048650E
:1037C00001208DF82F00EFE004200790FFE733E0A1
:1037D0000A980168012042F20002C4F202029142FA
:1037E00002900CD0FFE70A9800684DF60071CBF606
:1037F000FD710844B0FA80F040090290FFE702989A
:10380000C10746F20030C5F6020000291CBF42F293
:103810000030C4F202000DF047FA48B1FFE70A9900
:10382000486D40F02000486501208DF82F00BBE076
:1038300004200790FFE7FFE7FFE703F09DFE0890F5
:10384000FFE70A98006800680799084228D1FFE757
:103850000998013018B3FFE703F08EFE0899401A6B
:103860000999884203D8FFE70998B8B9FFE70A9891
:1038700000680068079908420FD1FFE70A99486D70
:1038800040F004004865FFE70A99002081F85000E5
:10389000FFE703208DF82F0086E0FFE7FFE7D0E782
:1038A0000A99486D40F4007048650A9800680DF068
:1038B0004BFAF0B1FFE70A98407DD0B9FFE70A98CC
:1038C000006800680007002812D5FFE70A99486DD4
:1038D00020F4807048650A98406DC004002806D422
:1038E000FFE70A99486D40F001004865FFE7FFE7F0
:1038F000FFE70A98006842F20011C4F20201884210
:1039000006D1FFE742F20000C4F20200019003E09A
:103910000A9800680190FFE701980A9909688842AF
:103920000BD0FFE7049840B1FFE70498052804D0C6
:10393000FFE70498092805D1FFE70A980068C068E6
:10394000069018E00A98006842F20011C4F20201E1
:10395000884206D1FFE742F20000C4F20200009064
:1039600003E00A9800680090FFE70098059005982A
:10397000C0680690FFE70798082805D1FFE70A9876
:103980000168082008600BE09DF819004006002837
:1039900005D4FFE70A9801680C200860FFE7FFE7FD
:1039A00000208DF82F00FFE79DF82F000CB080BDA0
:1039B00080B58AB0089008980168012042F20002A0
:1039C000C4F20202914204900CD0FFE7089800680C
:1039D0004DF60071CBF6FD710844B0FA80F0400955
:1039E0000490FFE70498C10746F20030C5F60200D4
:1039F00000291CBF42F20030C4F202000DF05CF955
:103A00000590089800680DF097F9002840F0CE80E6
:103A1000FFE7FFE7089890F85000012804D1FFE77E
:103A200002208DF82700CAE00899012081F8500093
:103A3000FFE7FFE70898FDF79BFF8DF81F009DF853
:103A40001F00002840F0AA80FFE70898406D40F46E
:103A5000807040F6016188430899486508980068BD
:103A600042F20011C4F20201884206D1FFE742F29D
:103A70000000C4F20200039003E00898006803907D
:103A8000FFE7039808990968884203D0FFE7059883
:103A900030B9FFE70899486D20F480104865FFE7CA
:103AA0000898406DC004002806D5FFE70899886D86
:103AB00020F00600886503E0089900208865FFE78C
:103AC000089801681C200860FFE70899002081F829
:103AD0005000FFE70898006842F20011C4F20201AA
:103AE000884206D1FFE742F20000C4F202000290D1
:103AF00003E0089800680290FFE7029808990968B7
:103B000088420BD0FFE7059840B1FFE705980528EC
:103B100004D0FFE70598092815D1FFE70898006849
:103B2000C0688001002809D5FFE70898406D40F47F
:103B3000805020F4005008994865FFE70898006815
:103B40000DF02EF929E00899486D40F48010486581
:103B50000898006842F20011C4F20201884206D1BE
:103B6000FFE742F20000C4F20200019003E008986F
:103B700000680190FFE7019806900698C0688001F0
:103B8000002809D5FFE70898406D40F4805020F4E4
:103B9000005008994865FFE7FFE706E0FFE708994E
:103BA000002081F85000FFE7FFE703E002208DF8D6
:103BB0001F00FFE79DF81F008DF82700FFE79DF825
:103BC00027000AB080BD000080B584B00290FFE7F6
:103BD000029890F85000012804D1FFE702208DF8E8
:103BE0000F002DE00299012081F85000FFE7FFE768
:103BF00002980321FDF78CFD8DF807009DF8070062
:103C000098B9FFE70298FDF74FFE8DF807009DF881
:103C1000070048B9FFE70298406D40F0010020F42A
:103C2000885002994865FFE7FFE7FFE70299002007
:103C300081F85000FFE79DF807008DF80F00FFE7BF
:103C40009DF80F0004B080BD80B58AB0089003F0E5
:103C500093FC0490089828B9FFE701208DF827000D
:103C600000F0AABC089890F8350002280ED0FFE7B3
:103C7000089980204865FFE70899002081F8340002
:103C8000FFE701208DF8270000F096BC0898016836
:103C900001201022C4F202029142039000F0A3809E
:103CA000FFE70898016801202822C4F2020291422D
:103CB000039000F09880FFE70898016801204022F7
:103CC000C4F202029142039000F08D80FFE7089851
:103CD000016801205822C4F202029142039000F0D0
:103CE0008280FFE70898016801207022C4F2020276
:103CF0009142039077D0FFE708980168012088225D
:103D0000C4F20202914203906DD0FFE70898016867
:103D10000120A022C4F202029142039063D0FFE787
:103D2000089801680120B822C4F20202914203906F
:103D300059D0FFE708980168012040F21042C4F210
:103D40000202914203904ED0FFE7089801680120DB
:103D500040F22842C4F202029142039043D0FFE7AE
:103D600008980168012040F24042C4F202029142E8
:103D7000039038D0FFE708980168012040F25842CC
:103D8000C4F20202914203902DD0FFE70898016827
:103D9000012040F27042C4F202029142039022D00C
:103DA000FFE708980168012040F28842C4F202024D
:103DB0009142039017D0FFE708980168012040F274
:103DC000A042C4F20202914203900CD0FFE708988F
:103DD00000684FF64831CBF6FD710844B0FA80F028
:103DE00040090390FFE70398C00780B1FFE70898F8
:103DF0000168086820F01E0008600898016848699A
:103E000020F08000486108980068059009E0089853
:103E10000168086820F00E000860089800680590A6
:103E2000FFE70898016801201022C4F202029142C3
:103E3000029000F00381FFE7089801680120282222
:103E4000C4F202029142029000F0F880FFE7089865
:103E5000016801204022C4F202029142029000F067
:103E6000ED80FFE70898016801205822C4F20202A1
:103E70009142029000F0E280FFE70898016801207B
:103E80007022C4F202029142029000F0D780FFE754
:103E90000898016801208822C4F20202914202902F
:103EA00000F0CC80FFE7089801680120A022C4F24E
:103EB00002029142029000F0C180FFE70898016879
:103EC0000120B822C4F202029142029000F0B680B2
:103ED000FFE708980168012040F21042C4F2020294
:103EE0009142029000F0AA80FFE708980168012043
:103EF00040F22842C4F202029142029000F09E80F9
:103F0000FFE708980168012040F24042C4F2020233
:103F10009142029000F09280FFE70898016801202A
:103F200040F25842C4F202029142029000F08680B0
:103F3000FFE708980168012040F27042C4F20202D3
:103F4000914202907AD0FFE708980168012040F280
:103F50008842C4F20202914202906FD0FFE70898B3
:103F60000168012040F2A042C4F202029142029094
:103F700064D0FFE708980168012040F2B842C4F21B
:103F800002029142029059D0FFE70898016801208F
:103F900045F20842C5F60202914202904ED0FFE778
:103FA00008980168012045F21C42C5F602029142C0
:103FB000029043D0FFE708980168012045F23042A3
:103FC000C5F602029142029038D0FFE708980168D6
:103FD000012045F24442C5F60202914202902DD0E2
:103FE000FFE708980168012045F25842C5F6020231
:103FF0009142029022D0FFE708980168012045F223
:104000006C42C5F602029142029017D0FFE7089871
:104010000168012045F28042C5F6020291420290F9
:104020000CD0FFE7089800684AF66C31CAF2FD71BF
:104030000844B0FA80F040090290FFE70298C007F8
:1040400038B1FFE70898016E086820F480700860B6
:10405000FFE7089800681021C4F20201884200F0CE
:104060008180FFE7089800682821C4F20201884295
:1040700078D0FFE7089800684021C4F20201884226
:1040800070D0FFE7089800685821C4F20201884206
:1040900068D0FFE7089800687021C4F202018842E6
:1040A00060D0FFE7089800688821C4F202018842C6
:1040B00058D0FFE708980068A021C4F202018842A6
:1040C00050D0FFE708980068B821C4F20201884286
:1040D00048D0FFE70898006840F21041C4F202019E
:1040E00088423FD0FFE70898006840F22841C4F2B8
:1040F0000201884236D0FFE70898006840F240414C
:10410000C4F2020188422DD0FFE70898006840F20F
:104110005841C4F20201884224D0FFE708980068A1
:1041200040F27041C4F2020188421BD0FFE70898B8
:10413000006840F28841C4F20201884212D0FFE7D1
:104140000898006840F2A041C4F20201884209D0F8
:10415000FFE70898006840F2B841C4F202018842C3
:1041600007D1FFE708980168086820F0010008609F
:1041700006E008980168086820F001000860FFE781
:10418000FFE705980068C007C8B1FFE703F0F4F93E
:104190000499401A062811D3FFE7089920204865A2
:1041A0000899032081F83500FFE70899002081F87D
:1041B0003400FFE701208DF82700FDE1E1E70898D2
:1041C000016801201022C4F202029142019000F025
:1041D000A380FFE70898016801202822C4F20202A8
:1041E0009142019000F09880FFE708980168012053
:1041F0004022C4F202029142019000F08D80FFE75C
:104200000898016801205822C4F2020291420190EC
:1042100000F08280FFE70898016801207022C4F254
:1042200002029142019077D0FFE7089801680120CF
:104230008822C4F20202914201906DD0FFE70898F3
:1042400001680120A022C4F202029142019063D0D1
:10425000FFE7089801680120B822C4F202029142E7
:10426000019059D0FFE708980168012040F2104200
:10427000C4F20202914201904ED0FFE70898016813
:10428000012040F22842C4F202029142019043D040
:10429000FFE708980168012040F24042C4F20202A0
:1042A0009142019038D0FFE708980168012040F260
:1042B0005842C4F20202914201902DD0FFE70898C3
:1042C0000168012040F27042C4F202029142019062
:1042D00022D0FFE708980168012040F28842C4F22A
:1042E00002029142019017D0FFE70898016801206F
:1042F00040F2A042C4F20202914201900CD0FFE7CA
:10430000089800684FF64831CBF6FD710844B0FAC2
:1043100080F040090190FFE70198C00760B1FFE716
:104320000898806D07900898C06D00F01F013F202D
:104330008840079988600BE00898806D069008987F
:10434000C06D00F01F010120884006994860FFE71A
:104350000898016801201022C4F2020291420090E4
:1043600000F00381FFE70898016801202822C4F2C9
:1043700002029142009000F0F880FFE7089801687F
:1043800001204022C4F202029142009000F0ED8030
:10439000FFE70898016801205822C4F20202914206
:1043A000009000F0E280FFE7089801680120702289
:1043B000C4F202029142009000F0D780FFE7089813
:1043C000016801208822C4F202029142009000F0AC
:1043D000CC80FFE7089801680120A022C4F2020205
:1043E0009142009000F0C180FFE708980168012029
:1043F000B822C4F202029142009000F0B680FFE7BA
:1044000008980168012040F21042C4F20202914271
:10441000009000F0AA80FFE708980168012040F2B0
:104420002842C4F202029142009000F09E80FFE711
:1044300008980168012040F24042C4F20202914211
:10444000009000F09280FFE708980168012040F298
:104450005842C4F202029142009000F08680FFE7C9
:1044600008980168012040F27042C4F202029142B1
:1044700000907AD0FFE708980168012040F2884256
:10448000C4F20202914200906FD0FFE708980168E1
:10449000012040F2A042C4F202029142009064D096
:1044A000FFE708980168012040F2B842C4F2020216
:1044B0009142009059D0FFE708980168012045F229
:1044C0000842C5F60202914200904ED0FFE70898DC
:1044D0000168012045F21C42C5F60202914200909B
:1044E00043D0FFE708980168012045F23042C5F645
:1044F00002029142009038D0FFE70898016801203D
:1045000045F24442C5F60202914200902DD0FFE7E9
:1045100008980168012045F25842C5F6020291420E
:10452000009022D0FFE708980168012045F26C4214
:10453000C5F602029142009017D0FFE70898016883
:10454000012045F28042C5F60202914200900CD053
:10455000FFE7089800684AF66C31CAF2FD7108441A
:10456000B0FA80F040090090FFE70098C007A0B1C2
:10457000FFE70898416E806E48600898C06E58B199
:10458000FFE70898C16E086820F4807008600898FA
:10459000016F406F4860FFE7FFE70899012081F84D
:1045A0003500FFE70899002081F83400FFE7FFE7B6
:1045B00000208DF82700FFE79DF827000AB080BD96
:1045C00080B586B00490049820B9FFE701208DF8EB
:1045D000170046E3049890F83500022807D0FFE75B
:1045E00004998020486501208DF8170039E304986C
:1045F000016801201022C4F202029142029000F0F0
:10460000A380FFE70498016801202822C4F2020277
:104610009142029000F09880FFE704980168012021
:104620004022C4F202029142029000F08D80FFE726
:104630000498016801205822C4F2020291420290BB
:1046400000F08280FFE70498016801207022C4F224
:1046500002029142029077D0FFE70498016801209E
:104660008822C4F20202914202906DD0FFE70498C2
:1046700001680120A022C4F202029142029063D09C
:10468000FFE7049801680120B822C4F202029142B7
:10469000029059D0FFE704980168012040F21042CF
:1046A000C4F20202914202904ED0FFE704980168E2
:1046B000012040F22842C4F202029142029043D00B
:1046C000FFE704980168012040F24042C4F2020270
:1046D0009142029038D0FFE704980168012040F22F
:1046E0005842C4F20202914202902DD0FFE7049892
:1046F0000168012040F27042C4F20202914202902D
:1047000022D0FFE704980168012040F28842C4F2F9
:1047100002029142029017D0FFE70498016801203D
:1047200040F2A042C4F20202914202900CD0FFE794
:10473000049800684FF64831CBF6FD710844B0FA92
:1047400080F040090290FFE70298C007002800F0BF
:104750009D80FFE70499042081F8350004980068E3
:104760001021C4F20201884200F08180FFE7049822
:1047700000682821C4F20201884278D0FFE704983B
:1047800000684021C4F20201884270D0FFE704981B
:1047900000685821C4F20201884268D0FFE70498FB
:1047A00000687021C4F20201884260D0FFE70498DB
:1047B00000688821C4F20201884258D0FFE70498BB
:1047C0000068A021C4F20201884250D0FFE704989B
:1047D0000068B821C4F20201884248D0FFE704987B
:1047E000006840F21041C4F2020188423FD0FFE766
:1047F0000498006840F22841C4F20201884236D091
:10480000FFE70498006840F24041C4F20201884288
:104810002DD0FFE70498006840F25841C4F202012D
:10482000884224D0FFE70498006840F27041C4F247
:10483000020188421BD0FFE70498006840F28841DB
:10484000C4F20201884212D0FFE70498006840F2E7
:10485000A041C4F20201884209D0FFE70498006831
:1048600040F2B841C4F20201884207D1FFE7049840
:104870000168086820F00100086006E004980168FB
:10488000086820F001000860FFE7E5E1049801688E
:10489000086820F00E000860049800681021C4F237
:1048A0000201884200F08180FFE704980068282117
:1048B000C4F20201884278D0FFE7049800684021E2
:1048C000C4F20201884270D0FFE7049800685821C2
:1048D000C4F20201884268D0FFE7049800687021A2
:1048E000C4F20201884260D0FFE704980068882182
:1048F000C4F20201884258D0FFE704980068A02162
:10490000C4F20201884250D0FFE704980068B82141
:10491000C4F20201884248D0FFE70498006840F2E0
:104920001041C4F2020188423FD0FFE704980068BA
:1049300040F22841C4F20201884236D0FFE70498D1
:10494000006840F24041C4F2020188422DD0FFE7E6
:104950000498006840F25841C4F20201884224D011
:10496000FFE70498006840F27041C4F202018842F7
:104970001BD0FFE70498006840F28841C4F20201AE
:10498000884212D0FFE70498006840F2A041C4F2C8
:104990000201884209D0FFE70498006840F2B8415C
:1049A000C4F20201884207D1FFE704980168086851
:1049B00020F00100086006E004980168086820F013
:1049C00001000860FFE70498016801201022C4F28A
:1049D00002029142019000F00381FFE70498016810
:1049E00001202822C4F202029142019000F0F880D6
:1049F000FFE70498016801204022C4F202029142BC
:104A0000019000F0ED80FFE7049801680120582232
:104A1000C4F202029142019000F0E280FFE70498A4
:104A2000016801207022C4F202029142019000F05C
:104A3000D780FFE70498016801208822C4F20202AF
:104A40009142019000F0CC80FFE7049801680120BA
:104A5000A022C4F202029142019000F0C180FFE75F
:104A6000049801680120B822C4F202029142019028
:104A700000F0B680FFE704980168012040F2104280
:104A8000C4F202029142019000F0AA80FFE704986C
:104A90000168012040F22842C4F2020291420190D2
:104AA00000F09E80FFE704980168012040F2404238
:104AB000C4F202029142019000F09280FFE7049854
:104AC0000168012040F25842C4F202029142019072
:104AD00000F08680FFE704980168012040F27042F0
:104AE000C4F20202914201907AD0FFE70498016873
:104AF000012040F28842C4F20202914201906FD03C
:104B0000FFE704980168012040F2A042C4F20202CB
:104B10009142019064D0FFE704980168012040F2BF
:104B2000B842C4F202029142019059D0FFE70498C2
:104B30000168012045F20842C5F602029142019047
:104B40004ED0FFE704980168012045F21C42C5F6EB
:104B500002029142019043D0FFE7049801680120CE
:104B600045F23042C5F602029142019038D0FFE78B
:104B700004980168012045F24442C5F602029142C0
:104B800001902DD0FFE704980168012045F25842BA
:104B9000C5F602029142019022D0FFE70498016815
:104BA000012045F26C42C5F602029142019017D0F5
:104BB000FFE704980168012045F28042C5F6020231
:104BC000914201900CD0FFE7049800684AF66C31DE
:104BD000CAF2FD710844B0FA80F040090190FFE785
:104BE0000198C00728B3FFE70498016E086820F415
:104BF000807008600498806D03900498C06D00F088
:104C00001F0101208840039948600498416E806E1E
:104C100048600498C06E58B1FFE70498C16E0868F8
:104C200020F4807008600498016F406F4860FFE7CF
:104C3000FFE70499012081F83500FFE7049900207F
:104C400081F83400FFE70498006D20B1FFE7049875
:104C5000016D8847FFE7FFE7FFE700208DF81700A9
:104C6000FFE79DF8170006B080BD000000000000BF
:104C700081B000900098406D01B0704700000000C6
:104C800080B590B00F9000200B9040F20800C2F267
:104C90000040006848F2B511C1F64E31A0FB01108A
:104CA000800A0A900F98806D09900F98806D089087
:104CB000099800680E90089800680D900F98016898
:104CC00001201022C4F202029142079000F0A3805A
:104CD000FFE70F98016801202822C4F202029142E6
:104CE000079000F09880FFE70F98016801204022AC
:104CF000C4F202029142079000F08D80FFE70F9806
:104D0000016801205822C4F202029142079000F08B
:104D10008280FFE70F98016801207022C4F202022E
:104D20009142079077D0FFE70F9801680120882211
:104D3000C4F20202914207906DD0FFE70F9801681C
:104D40000120A022C4F202029142079063D0FFE743
:104D50000F9801680120B822C4F202029142079024
:104D600059D0FFE70F980168012040F21042C4F2C9
:104D70000202914207904ED0FFE70F980168012090
:104D800040F22842C4F202029142079043D0FFE76A
:104D90000F980168012040F24042C4F202029142A1
:104DA000079038D0FFE70F980168012040F2584281
:104DB000C4F20202914207902DD0FFE70F980168DC
:104DC000012040F27042C4F202029142079022D0C8
:104DD000FFE70F980168012040F28842C4F2020206
:104DE0009142079017D0FFE70F980168012040F229
:104DF000A042C4F20202914207900CD0FFE70F9844
:104E000000684FF64831CBF6FD710844B0FA80F0E7
:104E100040090790FFE70798C007002800F01385B6
:104E2000FFE70E980F99C96D01F01F01C8400007F8
:104E3000002840F1B080FFE70F9800681021C4F20D
:104E40000201884200F08180FFE70F980068282166
:104E5000C4F20201884278D0FFE70F980068402131
:104E6000C4F20201884270D0FFE70F980068582111
:104E7000C4F20201884268D0FFE70F9800687021F1
:104E8000C4F20201884260D0FFE70F9800688821D1
:104E9000C4F20201884258D0FFE70F980068A021B1
:104EA000C4F20201884250D0FFE70F980068B82191
:104EB000C4F20201884248D0FFE70F98006840F230
:104EC0001041C4F2020188423FD0FFE70F9800680A
:104ED00040F22841C4F20201884236D0FFE70F9821
:104EE000006840F24041C4F2020188422DD0FFE741
:104EF0000F98006840F25841C4F20201884224D061
:104F0000FFE70F98006840F27041C4F20201884246
:104F10001BD0FFE70F98006840F28841C4F20201FD
:104F2000884212D0FFE70F98006840F2A041C4F217
:104F30000201884209D0FFE70F98006840F2B841AB
:104F4000C4F20201884207D1FFE70F9800680068A9
:104F500000F00400069006E00F980068006800F07A
:104F600008000690FFE70698A0B1FFE70F980168D8
:104F7000086820F0040008600F98C06D00F01F0161
:104F800008208840099988600F99486D40F0010019
:104F90004865FFE7FFE70E980F99C96D01F01F0103
:104FA000C840C007002800F0A980FFE70F980068FC
:104FB0001021C4F20201884200F08180FFE70F98BF
:104FC00000682821C4F20201884278D0FFE70F98D8
:104FD00000684021C4F20201884270D0FFE70F98B8
:104FE00000685821C4F20201884268D0FFE70F9898
:104FF00000687021C4F20201884260D0FFE70F9878
:1050000000688821C4F20201884258D0FFE70F9857
:105010000068A021C4F20201884250D0FFE70F9837
:105020000068B821C4F20201884248D0FFE70F9817
:10503000006840F21041C4F2020188423FD0FFE70D
:105040000F98006840F22841C4F20201884236D02D
:10505000FFE70F98006840F24041C4F20201884225
:105060002DD0FFE70F98006840F25841C4F20201CA
:10507000884224D0FFE70F98006840F27041C4F2E4
:10508000020188421BD0FFE70F98006840F2884178
:10509000C4F20201884212D0FFE70F98006840F284
:1050A000A041C4F20201884209D0FFE70F980068CE
:1050B00040F2B841C4F20201884207D1FFE70F98DD
:1050C0000068406900F08000059005E00F980068D6
:1050D000006800200590FFE7059870B1FFE70F9882
:1050E000C06D00F01F0101208840099988600F9968
:1050F000486D40F002004865FFE7FFE70E980F9902
:10510000C96D01F01F01C8404007002840F1A98087
:10511000FFE70F9800681021C4F20201884200F0F6
:105120008180FFE70F9800682821C4F202018842BD
:1051300078D0FFE70F9800684021C4F2020188424E
:1051400070D0FFE70F9800685821C4F2020188422E
:1051500068D0FFE70F9800687021C4F2020188420E
:1051600060D0FFE70F9800688821C4F202018842EE
:1051700058D0FFE70F980068A021C4F202018842CE
:1051800050D0FFE70F980068B821C4F202018842AE
:1051900048D0FFE70F98006840F21041C4F20201C6
:1051A00088423FD0FFE70F98006840F22841C4F2E0
:1051B0000201884236D0FFE70F98006840F2404174
:1051C000C4F2020188422DD0FFE70F98006840F238
:1051D0005841C4F20201884224D0FFE70F980068CA
:1051E00040F27041C4F2020188421BD0FFE70F98E1
:1051F000006840F28841C4F20201884212D0FFE701
:105200000F98006840F2A041C4F20201884209D020
:10521000FFE70F98006840F2B841C4F202018842EB
:1052200007D1FFE70F980068006800F002000490C3
:1052300005E00F980068006800200490FFE70498DC
:1052400070B1FFE70F98C06D00F01F010420884087
:10525000099988600F99486D40F004004865FFE7A0
:10526000FFE70E980F99C96D01F01F01C840C006F5
:10527000002840F1DE80FFE70F9800681021C4F29B
:105280000201884200F08180FFE70F980068282122
:10529000C4F20201884278D0FFE70F9800684021ED
:1052A000C4F20201884270D0FFE70F9800685821CD
:1052B000C4F20201884268D0FFE70F9800687021AD
:1052C000C4F20201884260D0FFE70F98006888218D
:1052D000C4F20201884258D0FFE70F980068A0216D
:1052E000C4F20201884250D0FFE70F980068B8214D
:1052F000C4F20201884248D0FFE70F98006840F2EC
:105300001041C4F2020188423FD0FFE70F980068C5
:1053100040F22841C4F20201884236D0FFE70F98DC
:10532000006840F24041C4F2020188422DD0FFE7FC
:105330000F98006840F25841C4F20201884224D01C
:10534000FFE70F98006840F27041C4F20201884202
:105350001BD0FFE70F98006840F28841C4F20201B9
:10536000884212D0FFE70F98006840F2A041C4F2D3
:105370000201884209D0FFE70F98006840F2B84167
:10538000C4F20201884207D1FFE70F980068006865
:1053900000F00800039006E00F980068006800F035
:1053A00004000390FFE70398002841D0FFE70F981F
:1053B000C06D00F01F0110208840099988600F9887
:1053C00000680068400300281AD5FFE70F980068BE
:1053D00000680003002809D4FFE70F98006C20B193
:1053E000FFE70F98016C8847FFE708E00F98806C93
:1053F00020B1FFE70F98816C8847FFE7FFE716E0D1
:105400000F9800680068C005002807D4FFE70F98D0
:105410000168086820F008000860FFE70F98006C3A
:1054200020B1FFE70F98016C8847FFE7FFE7FFE730
:10543000FFE70E980F99C96D01F01F01C840800663
:10544000002840F12681FFE70F9800681021C4F280
:105450000201884200F08180FFE70F980068282150
:10546000C4F20201884278D0FFE70F98006840211B
:10547000C4F20201884270D0FFE70F9800685821FB
:10548000C4F20201884268D0FFE70F9800687021DB
:10549000C4F20201884260D0FFE70F9800688821BB
:1054A000C4F20201884258D0FFE70F980068A0219B
:1054B000C4F20201884250D0FFE70F980068B8217B
:1054C000C4F20201884248D0FFE70F98006840F21A
:1054D0001041C4F2020188423FD0FFE70F980068F4
:1054E00040F22841C4F20201884236D0FFE70F980B
:1054F000006840F24041C4F2020188422DD0FFE72B
:105500000F98006840F25841C4F20201884224D04A
:10551000FFE70F98006840F27041C4F20201884230
:105520001BD0FFE70F98006840F28841C4F20201E7
:10553000884212D0FFE70F98006840F2A041C4F201
:105540000201884209D0FFE70F98006840F2B84195
:10555000C4F20201884207D1FFE70F980068006893
:1055600000F01000029006E00F980068006800F05C
:1055700002000290FFE70298002800F08980FFE710
:105580000F98C06D00F01F012020884009998860A5
:105590000F9890F83500042837D1FFE70F9801687D
:1055A000086820F0160008600F980168486920F02C
:1055B000800048610F98006C20B9FFE70F98806C5D
:1055C00038B1FFE70F980168086820F0080008600C
:1055D000FFE70F98C06D00F01F013F208840099938
:1055E00088600F99012081F83500FFE70F990020AE
:1055F00081F83400FFE70F98006D20B1FFE70F98A6
:10560000016D8847FFE700F019BC0F98006800683B
:10561000400300281AD5FFE70F98006800680003D0
:10562000002809D4FFE70F98406C20B1FFE70F98DE
:10563000416C8847FFE708E00F98C06B20B1FFE797
:105640000F98C16B8847FFE7FFE720E00F980068DD
:105650000068C005002811D4FFE70F9801680868AA
:1056600020F0100008600F99012081F83500FFE755
:105670000F99002081F83400FFE7FFE70F98C06B17
:1056800020B1FFE70F98C16B8847FFE7FFE7FFE70F
:10569000FFE70F98406D002800F0D480FFE70F98D7
:1056A000406DC007002800F0C480FFE70F99042078
:1056B00081F835000F9800681021C4F20201884279
:1056C00000F08180FFE70F9800682821C4F20201F2
:1056D000884278D0FFE70F9800684021C4F20201A9
:1056E000884270D0FFE70F9800685821C4F2020189
:1056F000884268D0FFE70F9800687021C4F2020169
:10570000884260D0FFE70F9800688821C4F2020148
:10571000884258D0FFE70F980068A021C4F2020128
:10572000884250D0FFE70F980068B821C4F2020108
:10573000884248D0FFE70F98006840F21041C4F259
:10574000020188423FD0FFE70F98006840F22841ED
:10575000C4F20201884236D0FFE70F98006840F299
:105760004041C4F2020188422DD0FFE70F98006843
:1057700040F25841C4F20201884224D0FFE70F985A
:10578000006840F27041C4F2020188421BD0FFE77A
:105790000F98006840F28841C4F20201884212D09A
:1057A000FFE70F98006840F2A041C4F2020188426E
:1057B00009D0FFE70F98006840F2B841C4F2020137
:1057C000884207D1FFE70F980168086820F00100C0
:1057D000086006E00F980168086820F00100086082
:1057E000FFE7FFE70B9801300B900A99884201D937
:1057F000FFE707E0FFE70F9800680068C007002890
:10580000F0D1FFE70F9800680068C00728B1FFE7F4
:105810000F99032081F8350004E00F99012081F8E9
:105820003500FFE7FFE70F99002081F83400FFE71C
:10583000FFE70F98C06C20B1FFE70F98C16C884755
:10584000FFE7FFE7FAE20F980168012045F20842FE
:10585000C5F60202914201904ED0FFE70F98016811
:10586000012045F21C42C5F602029142019043D04C
:10587000FFE70F980168012045F23042C5F60202A9
:105880009142019038D0FFE70F980168012045F25E
:105890004442C5F60202914201902DD0FFE70F98D5
:1058A0000168012045F25842C5F60202914201907A
:1058B00022D0FFE70F980168012045F26C42C5F63F
:1058C00002029142019017D0FFE70F980168012072
:1058D00045F28042C5F60202914201900CD0FFE7EA
:1058E0000F9800684AF66C31CAF2FD710844B0FAAC
:1058F00080F040090190FFE70198C007002800F000
:105900009B82FFE70F98006800680C900D980F9934
:10591000C96D01F01F01C8404007002840F1D78041
:10592000FFE79DF830004007002840F1D080FFE7F6
:105930000F98C06D00F01F0104208840089948604E
:105940009DF831000006002818D5FFE79DF83200C9
:10595000C00748B9FFE70F98806C20B1FFE70F98A8
:10596000816C8847FFE708E00F98006C20B1FFE7E3
:105970000F98016C8847FFE7FFE7A7E09DF830002C
:105980008006002800F19980FFE70F980068102139
:10599000C4F20201884200F08180FFE70F9800689E
:1059A0002821C4F20201884278D0FFE70F980068EE
:1059B0004021C4F20201884270D0FFE70F980068CE
:1059C0005821C4F20201884268D0FFE70F980068AE
:1059D0007021C4F20201884260D0FFE70F9800688E
:1059E0008821C4F20201884258D0FFE70F9800686E
:1059F000A021C4F20201884250D0FFE70F9800684E
:105A0000B821C4F20201884248D0FFE70F9800682D
:105A100040F21041C4F2020188423FD0FFE70F98E4
:105A2000006840F22841C4F20201884236D0FFE704
:105A30000F98006840F24041C4F2020188422DD024
:105A4000FFE70F98006840F25841C4F20201884213
:105A500024D0FFE70F98006840F27041C4F20201C1
:105A600088421BD0FFE70F98006840F28841C4F2DB
:105A70000201884212D0FFE70F98006840F2A0416F
:105A8000C4F20201884209D0FFE70F98006840F293
:105A9000B841C4F20201884207D1FFE70F980168BC
:105AA000086820F00800086006E00F9801680868A0
:105AB00020F004000860FFE7FFE70F98006C20B1BA
:105AC000FFE70F98016C8847FFE7FFE7B3E10D9808
:105AD0000F99C96D01F01F01C8408007002840F1EF
