:020000040800F2
:1000000000350324AD02000829B20008D9A2000877
:1000100021B20008410E0008E1EE000800000000D7
:10002000000000000000000000000000D1C5000832
:10003000991200080000000041B20008F9C700084A
:10004000C7020008C7020008C7020008C70200086C
:10005000C7020008C7020008C7020008C70200085C
:10006000C7020008C7020008C7020008490E0008BE
:10007000C7020008C7020008C7020008C70200083C
:10008000C7020008C7020008C7020008C70200082C
:10009000C7020008C7020008C7020008C70200081C
:1000A000C7020008C7020008C7020008C70200080C
:1000B000C7020008C7020008C9C90008C702000833
:1000C000C7020008C7020008C702000879C4000878
:1000D000C7020008C7020008C7020008A9E5000817
:1000E000C7020008C702000800000000C70200089D
:1000F000C7020008C7020008C7020008C7020008BC
:10010000C7020008A9B80008C7020008C702000813
:10011000C7020008C7020008C7020008C70200089B
:10012000C7020008C7020008C7020008C70200088B
:10013000C7020008C7020008C7020008C70200087B
:1001400000000000000000000000000000000000AF
:10015000C7020008C7020008C7020008C9E5000876
:10016000C7020008C7020008C7020008C70200084B
:10017000C7020008C7020008C7020008C70200083B
:10018000C7020008C7020008C7020008C70200082B
:10019000C7020008C7020008C7020008C70200081B
:1001A000C7020008C7020008C7020008C70200080B
:1001B000B9B50008C7020008C7020008C702000856
:1001C000C7020008C7020008C7020008C7020008EB
:1001D000C702000831B20008C7020008C7020008C1
:1001E000C7020008C7020008C7020008C7020008CB
:1001F000C7020008C7020008C7020008C7020008BB
:10020000C7020008C7020008C7020008C7020008AA
:10021000C7020008C7020008C7020008C70200089A
:10022000C7020008C702000811AE00080000000065
:10023000C7020008C702000800000000C70200084B
:10024000C7020008C7020008C7020008C70200086A
:10025000C7020008C7020008C7020008C70200085A
:10026000C7020008C7020008C7020008C70200084A
:10027000C7020008C7020008C7020008000000000B
:10028000C7020008C7020008C702000800000000FB
:1002900000000000C7020008DFF80CD000F0D8F919
:1002A0000048004739E90308003503240648804721
:1002B00006480047FEE7FEE7FEE7FEE7FEE7FEE74B
:1002C000FEE7FEE7FEE7FEE7F9C80008990200082E
:1002D0002DE9F05F0546002092469B46884606467B
:1002E000814640241BE0284641464746224600F00E
:1002F0005CF953465A46C01A914110D3114618462C
:10030000224600F043F92D1A67EB01084F462246BA
:100310000120002100F03AF917EB00094E41201EA0
:10032000A4F10104DFDC484631462A464346BDE8D5
:10033000F09F40EA01039B0703D009E008C9121FA0
:1003400008C0042AFAD203E011F8013B00F8013B8F
:10035000521EF9D27047D2B201E000F8012B491EBB
:10036000FBD270470022F6E710B513460A46044652
:100370001946FFF7F0FF204610BD30B505462A4666
:100380000B4612F8010B13F8014B08B1A042F8D04C
:100390001CB1002802D06D1CF1E7284630BD10B515
:1003A000044604E00B7800F8013B03B1491C521EDF
:1003B000F8D2204610BDCAB2401E10F8011F8A4272
:1003C00002D00029F9D100207047421C10F8011B0F
:1003D0000029FBD1801A704710B5002200E0521CA2
:1003E000835C8C5CA34201D1002BF8D1D8B2E1B27E
:1003F000401A10BD034611F8012B00F8012B002A0A
:10040000F9D11846704700000FB400B58DB010A99F
:1004100009900B9000914FF0FF300A9000200C9053
:1004200005480690054807906A4609A80F9900F00C
:10043000E1F80DB05DF814FB110600082F06000866
:100440002DE9FF5F1D464FF0FF3BD5E90146914680
:100450005F464FF00008A9697F1C01988847296A08
:10046000824688470028F6D1BAF1FF3F0CD024F429
:10047000C064002E19DD600614D5BAF12B0F09D027
:10048000BAF12D0F0ED103E0584604B0BDE8F09F3D
:1004900044F48064A9697F1C01988847761E8246CF
:1004A000002E02DDBAF1300F03D0B9F1000F26D0D3
:1004B00032E0A969761E44F400747F1C01988847D5
:1004C0008246002E05DDBAF1780F06D0BAF1580F3A
:1004D00003D0B9F1000F10D01EE0B9F1000F02D027
:1004E000B9F1100F18D1A969761E24F400747F1C8D
:1004F000019888478246102002E0082000E00A2088
:10050000814609E008FB0908A969761E44F40074D5
:100510007F1C019888478246002E05DD49465046DB
:1005200000F053F80028EDDAE96901988847A00542
:1005300002D46FF00100A8E7E00725D1600613D5CB
:10054000600502D5C8F1000000E0404629680A1D98
:100550002A600968220501D5087015E0220701D537
:10056000088011E008600FE02868011D296000681C
:10057000210502D580F8008006E0210702D5A0F809
:10058000008001E0C0F8008038467EE7202A04DBC6
:10059000203A00FA02F1002070479140C2F1200396
:1005A00020FA03F3194390407047202A04DB203AD5
:1005B00021FA02F00021704721FA02F3D040C2F183
:1005C000200291400843194670473A2800D230383B
:1005D00020F02002412A01D3A2F13700884201D342
:1005E0004FF0FF307047000002681144137801603B
:1005F00018467047D16004495161044911620021D5
:100600001161114600F03CB8E905000875060008C4
:10061000426842B1016811F8013B23B1521EC0E9A2
:100620000012184670470121C160881E7047426859
:100630005AB1C368016843B983688B4205D0491E2B
:10064000521CC0E90012002070474FF0FF30704785
:10065000064C074D06E0E06840F0010394E807000F
:1006600098471034AC42F6D3FFF71AFEC868050865
:1006700008690508C0B24FF4F05100F097B90000C6
:100680002DE9F34F8BB04FF0000801F10C000C4640
:100690004FF0010B46460DF1080A019062690121F5
:1006A00001989047051E2DD0252D2CD0216A884712
:1006B000C0B16269012101989047216A88470028EA
:1006C000F7D1411E62690198904700E0761CA1694C
:1006D0000B988847216A88470028F7D1E1690B9871
:1006E0008847DBE7A1690B9888470746A84201D1F4
:1006F000761CD3E7E1690B9888477F1C02D1B8F1DB
:10070000000F6FD046E1002762693D4639460198E7
:1007100090472A2804D16269012101989047012558
:10072000DFF884926269012101989047A0F13001BD
:100730000A290AD24F45E5DC07EB870100EB4107A8
:10074000303FDFD445F01005ECE7E90601D46FF047
:1007500000476C280AD04C2814D0682815D06A2885
:100760000DD074281CD07A281AD01DE062690121AE
:10077000019890476C2802D045F0040514E045F03C
:1007800002050DE045F020050AE0626901210198AB
:100790009047682802D045F0080505E045F400655B
:1007A0006269012101989047C4E9015765283DD04D
:1007B00019DC58287AD00CDC452837D004DC2528F1
:1007C00026D0412831D131E046282FD047282CD1DE
:1007D0002CE05B2877D0612828D063287CD064285F
:1007E00023D15AE0D0E06F2848D008DC66281DD01D
:1007F00067281BD0692821D06E2816D127E07028E1
:1008000045D0732868D0752847D078280DD14DE0A1
:10081000A1690B988847054625283FF469AFE1692F
:100820000B9888476D1C3FF46AAFB3E023466A46D5
:100830006FF001000B99AFF300809EE045F040009F
:100840006060A80723464FF0000236D43EE0E80778
:100850007FF447AF2068011D21600068290501D59C
:1008600006701BE7290701D5068017E7A90703D5FE
:10087000F117C0E9006111E706600FE745F040009D
:100880006060A80723464FF0080216D41EE040F629
:100890000E0125EA0100606016E045F0400060604E
:1008A000A80723464FF00A0207D40FE045F04000A6
:1008B0006060A80708D5234610226FF001000B994D
:1008C000AFF3008059E007E0234610226FF00100EB
:1008D0000B99FFF7B5FD50E04FF000094F464B462E
:1008E000632802D05B2806D040E0E80601D401204E
:1008F000A06001273AE062690121019890475E28D3
:1009000005D14FF001096269494601989047216974
:1009100039B900210A46534643F82120491C0829C9
:10092000FADBB0B3216969B9C11700EBD162531189
:100930000AEB830122F01F02821A01200B6890400B
:1009400003430B6062690121019890475D28E8D15B
:10095000B9F1000F09D00020514651F82020D243B0
:1009600041F82020401C0828F7DB02AB2246009704
:100970006FF001000B99AFF3008000280CDA401CE7
:1009800008D1BBF1000F05D04FF0FF300DB0BDE82E
:10099000F08FFFE74046F9E7E90701D108F10108C8
:1009A00006444FF0000B79E6CCCCCC0C7F2801D963
:1009B000002208E0064A02EB5002C007127800D17C
:1009C000120902F00F020120904008407047000019
:1009D000F424050870B58C1810F8015B15F00703B6
:1009E00001D110F8013B2A1106D110F8012B03E0C8
:1009F00010F8016B01F8016B5B1EF9D12B0705D4D0
:100A00000023521E0DD401F8013BFAE710F8013B18
:100A1000CB1A921C03E013F8015B01F8015B521E34
:100A2000F9D5A142D8D3002070BD0000000000001D
:100A3000B0B50446006842F2001140F48070C4F280
:100A40000201884218D142F20830C4F20200006864
:100A500010F4403F18D006F067F861680546B1F51C
:100A6000803F05D0B1F5403F2CD0B1F5003F2AD1F1
:100A7000080CB5FBF0F526E046F20830C5F602009A
:100A8000006810F4403FE6D14FF40020002104F04C
:100A90001FFF61680546A1F580224FEAB2420A2A8B
:100AA00011D8DFE802F0070707070707515355572A
:100AB000590000BF6FF0010000EA5140B5FBF0F5AE
:100AC00001E000BFAD0803F02BF841F203018842BA
:100AD0000ED8206842F60151C0F231118D42816872
:100AE0002CBF41F4807121F480718160B0BD00BFE2
:100AF0004BF62140C0F2BE00854205D820688168CF
:100B000021F440718160B0BD47F64100C0F27D1014
:100B1000854207D820680122816862F3092181603B
:100B2000B0BD00BF20684FF28101C0F2FA218D42B2
:100B3000816805D8022262F309218160B0BD00BF3F
:100B400041F440718160B0BD2D09BCE76D09BAE781
:100B5000AD09B8E7ED09B6E72D0AB4E700000000DB
:100B600070B5044600688268836802F0040203F0EE
:100B70000803D2186CD0C268920121D5627D012A87
:100B80001ED1227D012A1BD10168490613D44DF6DE
:100B90000441C0F20C01043950D0026852065CBF17
:100BA00002685FEA426206D4026852065CBF0268CD
:100BB0005FEA4262EFD540210160012106E000BFFB
:100BC000022903D10221082612E000BF82685207E1
:100BD0000AD58268920707D44FF6C0738268C7F6B9
:100BE000FF731A401032826001294FF0040610D0C2
:100BF000826812070AD58268920707D44FF6C0733D
:100C00008268C7F6FF731A4020328260032908BF4A
:100C10000C2602F08DFF21688968314218D0054604
:100C200003E000BF8068304212D002F081FF401B19
:100C300006282068F6D381683142F3D0606D40F019
:100C400010006065A06D40F00100A065012070BD3E
:100C5000002070BD00000000F0B581B004460068BF
:100C60008168C9074CD14FF6C0778168C7F6FF7716
:100C700007F17F0211420BD0606D40F010006065FB
:100C8000A06D40F00100A065012001B0F0BD00BFE3
:100C90008168394041F00101816002F049FF42F270
:100CA000000346F20836C4F20203216803F580729D
:100CB00003F54275C5F60206914208BF2E469942D9
:100CC00008BF2E4699420546306816D0914214D18D
:100CD00010F01F0014D110E08868C00704D18868A4
:100CE000384040F00100886002F022FF401B21687C
:100CF000032802D30868C007BED00868C007EBD03D
:100D0000002001B0F0BD000080B500204FF400418C
:100D1000C5F6020002F0F4FEB0FA80F0400980BD92
:100D200042F604410246C2F202410846114606F06C
:100D30000BBF00000000000080B542F60440C2F284
:100D4000024006F015FF043818BF012080BD0000E6
:100D500080B500F019F8012814D142F60440C2F21F
:100D6000024007F071F9002818BF80BD42F6044028
:100D70004FF48041C2F2024006F04AFD002818BF3D
:100D8000012080BD022080BD80B582B001208DF899
:100D90000700FFF7B9FF18B19DF8070002B080BD4A
:100DA00000208DF807009DF8070002B080BD00000C
:100DB00080B513460A46014642F60440C2F202409C
:100DC00007F042FB002818BF012080BD0000000092
:100DD00080B582B040F278610120C2F20241ADF8E4
:100DE00006000022002308680DF106013EF094FA87
:100DF00002B080BD0000000080B513460A460146DF
:100E000042F60440C2F2024007F09AFB002818BFE5
:100E1000012080BD0000000080B582B040F2786102
:100E20000220C2F20241ADF8060000220023086849
:100E30000DF106013EF070FA02B080BD0000000026
:100E4000FEE700000000000042F69020C2F20240DF
:100E500001F0C2BB0000000040F20F42D0F800C019
:100E6000C4F20202944511DC6F22C4F202029445DE
:100E700022DC3F22C4F20202944539DC1022C4F283
:100E8000020294455AD0282254E000BF40F26F423B
:100E9000C4F2020294451BDC40F23F42C4F202025B
:100EA00094452DDC40F21042C4F20202944545D034
:100EB00040F228423EE000BF9F22C4F20202944565
:100EC00028DC7022C4F20202944537D0882231E037
:100ED00040F29F42C4F20202944523DC40F2704289
:100EE000C4F20202944529D040F2884222E000BFB9
:100EF0004022C4F20202944520D058221AE000BFDA
:100F000040F24042C4F20202944517D040F25842E7
:100F100010E000BFA022C4F2020294450ED0B82215
:100F200008E000BF40F2B842C4F20202944505D086
:100F300040F2A042C4F20202944517D10CF0F8022C
:100F40004AF6AB23103ACAF6AA23A2FB03310AA33E
:100F50005F2AC1F302115B5C40F2FF312CEA010110
:100F6000C36588BF04318165084670472CF0FF01D6
:100F700081650846704700BF00061016000610166F
:100F800070B540F26F44D0F800C0C4F20204D0F84B
:100F900058E0A4451ADC9F25C4F20205AC4533DCB9
:100FA0005725C4F20205AC455ADC1025C4F20205EF
:100FB000AC4500F098802825C4F20205AC4500F04D
:100FC00092804025C4F202058AE000BF45F22F4519
:100FD000C5F60205AC452DDC40F2B745C4F202056A
:100FE000AC454BDC40F27045C4F20205AC457AD00A
:100FF00040F28845C4F20205AC4574D040F2A045E9
:10100000C4F202056CE000BF40F22745C4F20205BD
:10101000AC4543DCA025C4F20205AC4563D0B8253D
:10102000C4F20205AC455ED040F21045C4F20205A0
:1010300056E000BF45F26B45C5F60205AC453FDC06
:1010400045F23045C5F60205AC454CD045F2444565
:10105000C5F60205AC4546D045F258453EE000BF16
:101060005825C4F20205AC453DD07025C4F20205F6
:10107000AC4538D08825C4F2020531E040F2B845CD
:10108000C4F20205AC452ED045F20845C5F602056E
:10109000AC4528D045F21C4520E000BF40F2284571
:1010A000C4F20205AC451ED040F24045C4F2020530
:1010B000AC4518D040F25845C4F2020510E000BF1C
:1010C00045F26C45C5F60205AC450CD045F2944599
:1010D000C5F60205AC4506D045F28045C5F60205C9
:1010E000AC4540F0D580456EC66E002E866E6E60B3
:1010F0001CBFD0E91C566E60A44515DC9F24C4F2C9
:101100000204A4452CDC5724C4F20204A44551DC9B
:101110001024C4F20204A4457AD02824C4F20204A4
:10112000A44575D040246FE045F22F44C5F6020473
:10113000A44529DC40F2B744C4F20204A44545DCCE
:1011400040F27044C4F20204A44561D040F28844E5
:10115000C4F20204A4455BD040F2A04454E000BFB6
:1011600040F22744C4F20204A4453FDCA024C4F2A8
:101170000204A4454CD0B824C4F20204A44547D0CC
:1011800040F2104440E000BF45F26B44C5F6020453
:10119000A44555DC45F23044C5F60204A44561D0AF
:1011A00045F24444C5F60204A4455BD045F25844D8
:1011B00054E000BF5824C4F20204A44528D070248F
:1011C000C4F20204A44523D088241DE040F2B844B0
:1011D000C4F20204A4451BD045F20844C5F602043B
:1011E000A4453FD045F21C4438E000BF40F22844FB
:1011F000C4F20204A4450BD040F24044C4F20204FD
:10120000A44505D040F25844C4F20204A4453FD19D
:101210008468C06D00F01F003F2505FA00F0CEF88D
:101220000800DCF80000402C20F48020CCF80000FE
:10123000CCF8043023D0CCF80810CCF80C2070BDCA
:1012400045F26C44C5F60204A4450BD045F2804437
:10125000C5F60204A44505D045F29444C5F602043F
:10126000A44515D1C46D806804F01F0401254028F1
:1012700005FA04F4CEF80440CCF8043004D1CCF8DC
:101280000820CCF80C1070BDCCF80810CCF80C205D
:1012900070BD00000000000070470000000000006A
:1012A000EFF3108072B600BFFEE700000000000000
:1012B00080B540F2CC73C2F202435A7A002A1CBFB6
:1012C000012080BD93F809C08646002003F80C0079
:1012D0005A7A03EB8202C2F804E05A7A1A44107276
:1012E00093F809C00CF101025A720CF130020A7035
:1012F00042F63A72A1F80120C87080BD00000000DB
:10130000F0B581B00022009290F85020012A03D15C
:101310000221084601B0F0BD0768012380F8503073
:10132000BB685B0700F19D810B684FF6FF7CB3F152
:10133000FF3FC0F20F0C11DD93FAA3F413EA0C0F78
:10134000B4FA84F44FF0010208BF9C0E9B0E04F027
:101350001F04A240FC692243FA6100E09B0E4A6828
:101360001F2603F01F03C2F3012402F01F02964060
:1013700007EB840403FA02F2256B25EA06063243E2
:101380002263BA68BB6802F0040203F00803D218B3
:1013900040F095800A6807258E68C2F34063C2F367
:1013A000045207EB830395405C6906FA02F224EAD3
:1013B00005052A435A6141F20002C5F6004212684F
:1013C00002F07042B2F1805F32D14A69FB680E26AA
:1013D00006EA530302FA03F30C69042C38D007F130
:1013E00060020E6806F0F84652F82450334305F0C8
:1013F00000452B4342F824300B694E7E52F82350AF
:10140000012E25F0004508BF05F1004542F82350A4
:101410000A7E0B693E69013A03F01F03B2FA82F2B9
:1014200026F4F0465209D2029A4032433A6146E02D
:10143000FA684B69FE68D2064FEA560402D404F0FB
:101440000E0201E004F0080293400C69042CC6D19E
:101450003A6E0B6802F0F8429B069A4218D13A6E37
:1014600022F000423A667A6E02F0F8429A4214D0B4
:10147000BA6E02F0F8429A4218D1BA6E22F00042D7
:10148000BA66FA6E02F0F8429A4214D017E000BF32
:101490007A6E02F0F8429A42EAD17A6E22F0004265
:1014A0007A66BA6E02F0F8429A42E6D0FA6E02F01C
:1014B000F8429A4203D1FA6E22F00042FA66BA6804
:1014C000D20745D1D1F800E00023C968D7F8C02081
:1014D0000EEA0C04C4F25273A24301F018042CFA71
:1014E00004F603F52D0506EA0E06A94246EA0201B6
:1014F000C7F8C0105FD142F20011C4F202018F425E
:1015000028D042F20001C4F202018F423ED11F21D5
:10151000C1F2F0418E4540F3C58040F2FF71C2F642
:1015200030618E4540F3AE8040F60001C2F6306176
:101530008E4500F0FD8041F20001C3F260218E452E
:1015400000F0E6800021C4F221318E451FD0F5E085
:1015500000218BE01F21C1F2F0418E4500F38C8009
:101560000721C0F690418E4500F3AA800221C0F207
:1015700030418E4500F0A1800421C0F660018E4507
:1015800040F0DC804023C1F6201300E0002393FAF2
:10159000A3F143F6C132B1FA81F1C0F20A0213425B
:1015A0004FF0010208BF990E01F01F0102FA01F18C
:1015B000FA691143F961BEF1FF3F01DD002155E0F9
:1015C00042F2000146F20833C4F20201C5F60203FA
:1015D00001F5807201F5427697421A4608BF3246FD
:1015E0008F4242F2001508BF324647F48076C4F2BB
:1015F0000205AE4214682DD18A68D1F80811114352
:10160000C9072ED1002104F0E07CCCF684318E4550
:1016100008BF14F4000163D00021CCF252718E4552
:1016200008BF14F0807161D00021CCF6B8718E45EE
:101630004FF000011AD114F4800204BFA3F54272E6
:10164000974213D1196821F0E07141EA0C0141F48D
:101650008001B8E04FF60051CFF6FF715958C90725
:10166000D0D0416D41F0200141650121002280F878
:101670005020084601B0F0BD40F2FF71C2F6306163
:101680008E4539DC2021C1F2F0418E4546D040F232
:101690000041C2F600218E4550D140F60003C2F64B
:1016A000306374E70721C0F690418E4508DC0221C3
:1016B000C0F230418E457FF45FAF012367E700BF82
:1016C0000821C0F690418E452ED01021C1F2C001F4
:1016D0008E4533D140F20013C2F2801357E700BFAA
:1016E000A3F542718F4233D00021BFE7A3F54271C9
:1016F0008F4261D00021B9E740F60001C2F63061A7
:101700008E4515D041F20001C3F260218E4515D1FE
:1017100042F20003C3F2906339E700BF40F20023B6
:10172000C2F2B05333E700BF8023C1F650532EE717
:1017300041F20003C3F2602329E700BF0021002328
:10174000C4F684318E4504BF0023C4F6B8731EE787
:10175000196842F6635221F0E071C0F23E5241EA4C
:101760000C0141F40001196040F25401C2F2004141
:1017700009688909A1FB02129109022202EB4101C9
:101780000091009911B30099013900910099F9B1C4
:101790000099013900910099E1B100990139009156
:1017A0000099C9B1009901390091009900294FF0C1
:1017B0000001E8D15AE700BF196821F0E07141EA61
:1017C0000C0141F08071196000214FE700214DE7C5
:1017D00000214BE7002149E7002147E70000000016
:1017E0000068006C7047000070B582B004460028A5
:1017F0004FF00000019009D0606D58B120688168F9
:10180000890012D48168C90019D54AE00126304602
:1018100002B070BD204600F01FF90020A06584F8DA
:101820005000206881688900ECD54FF6C07281684D
:10183000C5F6FF72114081608168C90031D44FF64E
:10184000C0718268C5F6FF7101F18051114042F606
:10185000635201F18051816040F25401C0F23E5266
:10186000C2F2004109688909A1FB0212012101EBC2
:10187000921101E0019901390191019989B1019910
:1018800001390191019961B10199013901910199E0
:1018900000291FBF019901390191019918BF002941
:1018A000E8D18168C90009D4616D012641F01001B9
:1018B0006165A16D41F00101A16500E0002681682C
:1018C000626D02F0100201F004018918616D40F0B0
:1018D000918021F48171023161658168C90728D145
:1018E00042F2001240F48071C4F20202914242F2CC
:1018F0000001C4F2020140F0A5808A68D1F80831E5
:101900001A43D20715D101F5807201F5427346F2F0
:10191000080C9042C5F6020C1A4618BF0CF540722E
:10192000884208BF1A466068116821F47C11084398
:10193000106002F0F5F841F2030100228842A0682D
:10194000A0F1100188BF0122B1FA81F1237F49097A
:101950001140226B617D154616BF4D034A031C20C2
:10196000012B45EA034141EA020141EA000106D1A7
:10197000206A0022CFF6FE7202EB40400143606A0B
:1019800020B100F47870A26A1043014320684CF241
:101990000303CFF6F073C2681A401143C160816837
:1019A000826801F0040102F00802891836D1217D15
:1019B00044F20305E26AC36842EA813123EA050280
:1019C0001143C16094F83810012901691AD14FF60A
:1019D0001E020125CFF60042CFF6FF751140D4E973
:1019E0000F231943636C05EB02421143A26C1943A8
:1019F000114309E041F0100001266065304602B055
:101A000070BD00BF21F0010101610169626B21F02D
:101A10007041114301612046FFF70AF82068E16830
:101A20000129026B22F00F0102D1A269013A114390
:101A300001630121606D61F301006065304602B011
:101A400070BD00BF46F20802C5F602021268D20756
:101A50003FF459AF6DE7000080B586B042F2001246
:101A60000068C4F20202002190420591049101D065
:101A700006B080BD44F2D840C5F60200026842F0CC
:101A800020020260026802F020020092009A82683E
:101A900042F004028260806800F004000090009828
:101AA000022001900320CDE9020140F6000001A9C7
:101AB000C5F6020001F04CFF06B080BD000000003A
:101AC0002DE9F04F81B042F2000746F20832C4F22D
:101AD00002070446006807F5807907F54273C5F6EA
:101AE000020248458B4608BF1A46B84208BF1A464C
:101AF000D4F810801368B8F1080F03F01F0A01D161
:101B000008250DE0BAF1090F3AD8012140F221234E
:101B100001FA0AF1194233D0C068C00734D1042554
:101B200002F006F821680A682A4241D106461BF1F4
:101B3000010034D0BBF1000F0DD100BF01F0F8FF60
:101B40002168086828420FD008682842F6D02FE0A4
:101B5000086828422CD101F0EBFF801B2168584512
:101B6000F6D908682842F3D1606D40F00400606542
:101B7000002084F85000032001B0BDE8F08F00BFC2
:101B8000106810F4404FCAD0606D40F020006065CE
:101B9000012001B0BDE8F08F0868284208D108682C
:101BA000284205D10868284204BF08682842F3D0BB
:101BB000606D40F400706065C86810F4406F0FD12C
:101BC000607D68B9086800070AD5606D20F48070F0
:101BD0006065606DC00403D4606D40F00100606515
:101BE000494518BF0F46BAF1090F384608BF0846E5
:101BF000BAF1050F08BF0846BAF1000F08BF084642
:101C00008F4208BF3846B8F1080FC06802D10820DB
:101C100003E000BF400401D40C200860002001B0A4
:101C2000BDE8F08F00000000F0B581B042F2000581
:101C300046F20832C4F202050446006805F58076D3
:101C400005F54271C5F60202B04208BF0A46A84235
:101C500008BF0A4617688068400703D494F850000C
:101C6000012803D1022001B0F0BD00BF012084F89B
:101C700050002046FEF7F0FF20B1002184F85010FC
:101C800001B0F0BD206807F01F01B04240F60173BB
:101C900018BF0546626D2F1A22EA0303B7FA87F7C9
:101CA00003F580737A09636500D119B9636D23F474
:101CB00080136365636D0027DB044FF0000344BFAE
:101CC000A76D27F00607A7654FF01C07076084F88B
:101CD000503042B9092919D8012202FA01F140F223
:101CE0002122114212D0C168890104D5616D0122FF
:101CF00062F30D3161654FF6C0728168C7F6FF72FD
:101D0000114004318160002001B0F0BD606D40F4ED
:101D100080106065E8688001F5D5606D012161F390
:101D20000D306065002001B0F0BD00000000000033
:101D3000B0B5044690F85000012801D10220B0BD92
:101D4000012084F8500003212046FEF709FF18B156
:101D5000002184F85010B0BD206881688268D207E5
:101D600017D011F0020114D1816801F00D01012991
:101D700026D14FF6C0728168C7F6FF72114002315A
:101D800081600321016001F0D3FE21688968C907E1
:101D900008D1214641F2011251F8540F20EA020203
:101DA000002015E0054602E08068C007F1D001F090
:101DB000BFFE401B03282068F6D38168C907F3D013
:101DC000606D214640F01000606551F8582F0120E9
:101DD00042F001020A60002184F85010B0BD0000FA
:101DE0002DE9F041044601F0A3FE1CB3054694F82A
:101DF0003500022822D140F20F462768C4F20206BD
:101E000040F26F48B7426FF00E00C4F202081DDCCA
:101E10006F21C4F202018F422ADC3F21C4F2020189
:101E20008F4241DC1021C4F202018F4263D028218D
:101E30005CE000BF0120BDE8F08100BF802060654C
:101E40000120002184F83410BDE8F08147451BDCF7
:101E500040F23F41C4F202018F422DDC40F21041BA
:101E6000C4F202018F4246D040F228413EE000BF5A
:101E70009F21C4F202018F4228DC7021C4F20201CA
:101E80008F4238D0882131E040F29F41C4F20201F4
:101E90008F4223DC40F27041C4F202018F422AD00B
:101EA00040F2884122E000BF4021C4F202018F428B
:101EB00021D058211AE000BF40F24041C4F2020193
:101EC0008F4218D040F2584110E000BFA021C4F268
:101ED00002018F420FD0B82108E000BF40F2B841A4
:101EE000C4F202018F4206D040F2A041C4F20201C6
:101EF0008F42394607D13946386820F01E0041F834
:101F0000140B6FF080000A68474500EA0200086081
:101F10001ADC9F20C4F20200874233DC5720C4F24F
:101F2000020087425ADC1020C4F20200874200F00F
:101F300097802820C4F20200874200F09180402060
:101F4000C4F202008AE000BF45F22F40C5F602004D
:101F500087422DDC40F2B740C4F2020087424BDCDE
:101F600040F27040C4F20200874279D040F28840CB
:101F7000C4F20200874273D040F2A040C4F20200D3
:101F80006CE000BF40F22740C4F20200874243DC0D
:101F9000A020C4F20200874262D0B820C4F202003E
:101FA00087425DD040F21040C4F2020056E000BF0C
:101FB00045F26B40C5F6020087423FDC45F23040F7
:101FC000C5F6020087424BD045F24440C5F60200F8
:101FD000874245D045F258403EE000BF5820C4F249
:101FE000020087423CD07020C4F20200874237D002
:101FF0008820C4F2020031E040F2B840C4F202008E
:1020000087422DD045F20840C5F60200874227D00E
:1020100045F21C4020E000BF40F22840C4F202001C
:1020200087421DD040F24040C4F20200874217D0E0
:1020300040F25840C4F2020010E000BF45F26C408C
:10204000C5F6020087420BD045F29440C5F6020067
:10205000874205D045F28040C5F60200874204D190
:10206000206E016821F480710160386820F0010061
:10207000386000BF3868C00710D001F059FD401B20
:102080000628F7D320206065032084F8350001205E
:10209000002184F83410BDE8F08100BF2068B04210
:1020A00010DC6F21C4F2020188421DDC3F21C4F222
:1020B0000201884234DC1021C4F20201884255D06A
:1020C00028214FE040451BDC40F23F41C4F20201B1
:1020D00088422DDC40F21041C4F20201884245D012
:1020E00040F228413EE000BF9F21C4F20201884235
:1020F00028DC7021C4F20201884237D0882131E007
:1021000040F29F41C4F20201884223DC40F2704158
:10211000C4F20201884229D040F2884122E000BF87
:102120004021C4F20201884220D058211AE000BFA9
:1021300040F24041C4F20201884217D040F25841B7
:1021400010E000BFA021C4F2020188420ED0B821E5
:1021500008E000BF40F2B841C4F20201884205D055
:1021600040F2A041C4F2020188425BD1D4E91612C8
:1021700002F01F023F2303FA02F28A6040455BDC53
:102180009F21C4F20201884214DC5721C4F20201EB
:10219000884227DC1021C4F20201884200F0A280AC
:1021A0002821C4F20201884200F09C804021C4F240
:1021B000020195E040F22741C4F2020188421FDC8F
:1021C000A021C4F20201884200F08C80B821C4F240
:1021D0000201884200F0868040F21041C4F2020100
:1021E0007EE000BF5821C4F2020188427AD07021FB
:1021F000C4F20201884275D08821C4F202016FE066
:1022000040F22841C4F2020188426BD040F24041C2
:10221000C4F20201884265D040F25841C4F2020182
:102220005EE000BFD4E9161202F01F02012303FA98
:1022300002F24A604045A3DD45F22F41C5F6020196
:10224000884217DC40F2B741C4F20201884227DC21
:1022500040F27041C4F20201884243D040F288410A
:10226000C4F2020188423DD040F2A041C4F2020112
:1022700036E000BF45F26B41C5F6020188421FDC23
:1022800045F23041C5F6020188422BD045F2444167
:10229000C5F60201884225D045F258411EE000BF34
:1022A00040F2B841C4F2020188421BD045F2084115
:1022B000C5F60201884215D045F21C410EE000BF70
:1022C00045F26C41C5F6020188420BD045F29441BB
:1022D000C5F60201884205D045F28041C5F60201EB
:1022E00088420BD1616EA26EE06E4A6030B1016827
:1022F00021F480710160D4E91C014160012084F85F
:1023000035000020002184F83410BDE8F081000081
:1023100080B5D8B190F83510022919D140F20F429A
:102320000168C4F20202914216DC6F23C4F2020378
:10233000994227DC3F23C4F2020399423EDC10237A
:10234000C4F2020399425FD0282359E0012080BDE6
:1023500080214165012080BD40F26F43C4F2020339
:1023600099421BDC40F23F43C4F2020399422DDC48
:1023700040F21043C4F20203994245D040F2284390
:102380003EE000BF9F23C4F20203994228DC702381
:10239000C4F20203994237D0882331E040F29F43D0
:1023A000C4F20203994223DC40F27043C4F20203F8
:1023B000994229D040F2884322E000BF4023C4F272
:1023C0000203994220D058231AE000BF40F2404354
:1023D000C4F20203994217D040F2584310E000BF04
:1023E000A023C4F2020399420ED0B82308E000BF34
:1023F00040F2B843C4F20203994205D040F2A04330
:10240000C4F20203994275D191424FF0040280F860
:10241000352011DC6F20C4F20200814222DC3F2013
:10242000C4F20200814239DC1020C4F20200814271
:1024300059D0282054E000BF40F26F40C4F202009F
:1024400081421BDC40F23F40C4F2020081422DDC9D
:1024500040F21040C4F20200814244D040F22840D1
:102460003EE000BF9F20C4F20200814228DC7020C1
:10247000C4F20200814236D0882031E040F29F4011
:10248000C4F20200814223DC40F27040C4F2020038
:10249000814228D040F2884022E000BF4020C4F2B0
:1024A000020081421FD058201AE000BF40F2404095
:1024B000C4F20200814216D040F2584010E000BF42
:1024C000A020C4F2020081420DD0B82008E000BF75
:1024D00040F2B840C4F20200814204D040F2A04071
:1024E000C4F202008142086820F001000860002068
:1024F00080BD00BF0A6822F00E020A6045F2574212
:10250000C5F6020291420A6822F001020A600FDC5D
:1025100045F22F42C5F60202914219DC45F208420B
:10252000C5F60202914229D045F21C4222E000BFCA
:1025300045F27F42C5F60202914213DC45F2584251
:10254000C5F60202914219D045F26C4212E000BF7A
:1025500045F23042C5F6020291420FD045F24442A4
:1025600008E000BF45F29442C5F60202914205D050
:1025700045F28042C5F6020291421AD1D0E9181CF8
:10258000D0E916E30A6822F480720A6003F01F01A2
:10259000012202FA01F1CEF80410816ECCF8041089
:1025A000C16E31B10A6822F480720A60D0E91C124F
:1025B0004A60012180F83510026D002180F8341046
:1025C0000AB190470021084680BD000000000000CD
:1025D000406D7047000000002DE9F04782B00021F7
:1025E000019140F254010446C2F2004148F2B51292
:1025F000C1F64E32A56D096840F26F490068C4F219
:102600000209A1FB021848452E68296816DC9F21A3
:10261000C4F2020188422DDC5721C4F20201884233
:1026200052DC1021C4F2020188427CD02821C4F27D
:102630000201884277D0402170E000BF45F22F426E
:10264000C5F60202904229DC40F2B742C4F202020F
:10265000904245DC40F27041C4F20201884262D0EF
:1026600040F28841C4F2020188425CD040F2A041AD
:1026700054E000BF40F22741C4F2020188423FDC2F
:10268000A021C4F2020188424DD0B821C4F2020157
:10269000884248D040F2104140E000BF45F26B4212
:1026A000C5F60202904275DC45F23042C5F60202E0
:1026B000904200F0828045F24442C5F60202904208
:1026C0007BD045F2584273E05821C4F2020188429F
:1026D00029D07021C4F20201884224D088211DE053
:1026E00040F2B842C4F2020290421CD045F20842C5
:1026F000C5F60202904260D045F21C4258E000BF8D
:1027000040F22841C4F2020188420CD040F240411C
:10271000C4F20201884206D040F25841C4F20201DC
:10272000884240F05A83E16D082201F01F0140F217
:102730000F4A8A40C4F2020A324200F0E680504555
:102740004FF0040312DC6F27C4F20207B8426FDCBB
:102750003F27C4F20207B84200F3A4801027C4F256
:102760000207B84200F0C5802827BDE048456BDC71
:1027700040F23F47C4F20207B84200F39B8040F2A8
:102780001047C4F20207B84200F0B38040F2284775
:10279000AAE000BF45F26C42C5F6020290420CD09E
:1027A00045F28042C5F60202904206D045F29442BC
:1027B000C5F60202904240F010830268E36D03F018
:1027C0001F0304279F400F4218BF12F0040621D1B7
:1027D00002279F400F4218BF12F002064CD1D94089
:1027E000090740F1FA8212F0080100F0F682016850
:1027F00021F00E010160012000FA03F169606065BB
:1028000084F835000020E16C84F83400002940F0A1
:10281000DC82E2E211046F6026D4910603D40168E1
:1028200021F004010160216C002940F0CE82D4E245
:102830009F27C4F20207B84246DC7027C4F20207A1
:10284000B84256D088274FE040F29F47C4F20207B3
:10285000B84241DC40F27047C4F20207B84248D0A7
:1028600040F2884740E000BFD00300F1B382A16C82
:10287000002940F0AA82B0E211046F6000F1B0823A
:10288000910609D4016821F00A010160012084F851
:102890003500002084F83400E16B002940F0958277
:1028A0009BE200BF4027C4F20207B84221D058275C
:1028B0001AE000BF40F24047C4F20207B84218D005
:1028C00040F2584710E000BFA027C4F20207B84208
:1028D0000FD0B82708E000BF40F2A047C4F20207BB
:1028E000B84206D040F2B847C4F20207B84218BF57
:1028F000082307681F4208D0036823F0040303601D
:10290000AA60626D42F00102626501228A40324291
:102910006FD0504510DC6F23C4F2020398421DDCD7
:102920003F23C4F20203984234DC1023C4F20203B2
:10293000984256D028234FE048451BDC40F23F43E5
:10294000C4F2020398422DDC40F21043C4F20203A9
:10295000984246D040F228433EE000BF9F23C4F295
:102960000203984228DC7023C4F20203984238D054
:10297000882331E040F29F43C4F20203984223DCF3
:1029800040F27043C4F2020398422AD040F28843D6
:1029900022E000BF4023C4F20203984221D0582312
:1029A0001AE000BF40F24043C4F20203984218D03C
:1029B00040F2584310E000BFA023C4F20203984243
:1029C0000FD0B82308E000BF40F2A043C4F20203D6
:1029D000984206D040F2B843C4F20203984240F055
:1029E000058243691B0604D5AA60626D42F00202AB
:1029F000626504228A4032426FD0504510DC6F235A
:102A0000C4F2020398421DDC3F23C4F20203984241
:102A100034DC1023C4F20203984256D028234FE03E
:102A200048451BDC40F23F43C4F2020398422DDCD0
:102A300040F21043C4F20203984246D040F22843C9
:102A40003EE000BF9F23C4F20203984228DC7023BB
:102A5000C4F20203984238D0882331E040F29F4309
:102A6000C4F20203984223DC40F27043C4F2020332
:102A700098422AD040F2884322E000BF4023C4F2AB
:102A80000203984221D058231AE000BF40F240438D
:102A9000C4F20203984218D040F2584310E000BF3D
:102AA000A023C4F2020398420FD0B82308E000BF6D
:102AB00040F2A043C4F20203984206D040F2B84369
:102AC000C4F20203984240F0998103689B0704D541
:102AD000AA60626D42F004026265102202FA01F1FE
:102AE000314200F0818050454FF0080210DC6F2326
:102AF000C4F2020398421DDC3F23C4F20203984251
:102B000034DC1023C4F20203984256D028234FE04D
:102B100048451BDC40F23F43C4F2020398422DDCDF
:102B200040F21043C4F20203984246D040F22843D8
:102B30003EE000BF9F23C4F20203984228DC7023CA
:102B4000C4F20203984238D0882331E040F29F4318
:102B5000C4F20203984223DC40F27043C4F2020341
:102B600098422AD040F2884322E000BF4023C4F2BA
:102B70000203984221D058231AE000BF40F240439C
:102B8000C4F20203984218D040F2584310E000BF4C
:102B9000A023C4F2020398420FD0B82308E000BF7C
:102BA00040F2A043C4F20203984206D040F2B84378
:102BB000C4F20203984218BF04220368134213D0E0
:102BC000A96001684903016808D4C90508D40168EF
:102BD00021F008010160216C21B905E008034FD400
:102BE000216C09B120468847E06D00F01F012020CC
:102BF00000FA01F2324200F0AB8020681023504509
:102C000010DC6F27C4F20207B8421DDC3F27C4F274
:102C10000207B84238DC1027C4F20207B8425AD083
:102C2000282753E048451BDC40F23F47C4F2020727
:102C3000B84231DC40F21047C4F20207B8424AD031
:102C400040F2284742E000BF9F27C4F20207B84283
:102C50002CDC7027C4F20207B8423CD0882735E04C
:102C600040F29F47C4F20207B84227DC40F27047A7
:102C7000C4F20207B8422ED040F2884726E000BFD7
:102C8000A16C0029AED1AFE74027C4F20207B842D9
:102C900021D058271AE000BF40F24047C4F2020793
:102CA000B84218D040F2584710E000BFA027C4F245
:102CB0000207B8420FD0B82708E000BF40F2A04793
:102CC000C4F20207B84206D040F2B847C4F2020785
:102CD000B84218BF022307681F4239D0AA6094F88F
:102CE0003520042A02681BD122F0160202604269D4
:102CF00022F080024261226C0AB9A26C1AB1026809
:102D000022F0080202603F208840A860012084F879
:102D10003500216D0020002984F8340055D15CE095
:102D2000510301680CD4C9050ED4016821F01001CB
:102D30000160012084F83500002084F8340003E0AD
:102D4000080301D4616C00E0E16B09B120468847BB
:102D5000606D002841D0606DC00734D0042084F835
:102D6000350020684FEA9821026822F001020260D3
:102D7000019A013201928A421AD80268D20717D00A
:102D8000019A013201928A4212D80268D2070FD00A
:102D9000019A013201928A420AD80268D20707D00A
:102DA000019A013201928A4202D80268D207DFD129
:102DB0000068C0074FF0030008BF012084F8350009
:102DC000002084F83400E16C39B1204602B0BDE83F
:102DD000F0470847216C0029F7D102B0BDE8F08721
:102DE000D0030DD4616C0029EFD1F6E7026804220C
:102DF0008A4032427FF401AE6FE600BF02686CE6A3
:102E0000E16B0029E1D1E8E72DE9F041044600F04B
:102E10008FFEFCB140F26F4805462068C4F20208FC
:102E200040451BDC9F21C4F20201884232DC57215D
:102E3000C4F20201884259DC1021C4F20201884226
:102E400000F083802821C4F20201884200F07D80D6
:102E5000402175E00120BDE8F08100BF45F22F411F
:102E6000C5F60201884229DC40F2B741C4F20201F2
:102E7000884247DC40F27041C4F20201884264D0CB
:102E800040F28841C4F2020188425ED040F2A04183
:102E900056E000BF40F22741C4F20201884241DC03
:102EA000A021C4F2020188424FD0B821C4F202012D
:102EB00088424AD040F2104142E000BF45F26B41E7
:102EC000C5F60201884200F3C18045F23041C5F6E3
:102ED0000201884200F0CD8045F24441C5F602016E
:102EE000884200F0C68045F25841BDE05821C4F246
:102EF0000201884229D07021C4F20201884224D004
:102F000088211DE040F2B841C4F2020188421CD081
:102F100045F20841C5F60201884200F0AA8045F258
:102F20001C41A1E040F22841C4F2020188420CD0C9
:102F300040F24041C4F20201884206D040F25841BA
:102F4000C4F20201884240F02981022184F8351040
:102F5000002184F83410016821F00101016000BFF4
:102F600020680168C9070DD000F0E2FD401B06286B
:102F7000F6D320206065032084F835000120BDE8E9
:102F8000F08100BF48F23F0204F108060168CFF665
:102F9000106211406CCE1143A2691943E3692943C1
:102FA000256A0E43616A3343042943EA050343EA71
:102FB000020303D1D4E90B652E43334341F20006EB
:102FC000C5F600463668B6F1005F1DD36668A6F107
:102FD0002905292D18D8DFE805F015151515151543
:102FE0001717171717171717171717171717171771
:102FF000151515151717171715151717171717176D
:103000001515151543F4801303600429436923F053
:10301000070341EA030140F0DD80D4E90A53002BA5
:1030200041EA050100F0D680B2F5005F00F0B880FB
:10303000002A40F0C180022D00F0C180012D00F077
:10304000B580002D00F0BB80C4E000BF45F26C41AC
:10305000C5F6020188420CD045F28041C5F6020156
:10306000884206D045F29441C5F60201884240F0FC
:10307000958004F1080E022184F83510002184F8AF
:1030800034100168A3699EE80450A2F18007E66944
:10309000B7FA87F765697F09402A4FEA873743EA1D
:1030A00006026FF3101142EA050208BF102741EA39
:1030B000DC0142EA0E02236A394341EAD20141EAC5
:1030C000131140F80819C0B2CD2148433C2101EA50
:1030D0009020E0652046FDF7BFFEE16D012201F082
:1030E0001F0102FA01F141602068404500F3818030
:1030F0009F21C4F20201884214DC5721C4F202016C
:10310000884227DC1021C4F20201884200F0C78007
:103110002821C4F20201884200F0C1804021C4F29B
:103120000201B9E040F22741C4F20201884221DCE9
:10313000A021C4F20201884200F0B180B821C4F29B
:103140000201884200F0AB8040F21041C4F202015B
:10315000A2E000BF5821C4F20201884200F09F8023
:103160007021C4F20201884200F099808821C4F2E3
:10317000020191E040F22841C4F20201884200F0CD
:103180008E8040F24041C4F20201884200F0878004
:1031900040F25841C4F202017EE000BF4020E9E65F
:1031A000032D17D8DFE805F00E0B0E02A3F1C07255
:1031B000B2FA82F2520904E0032D03D30AD1C3F319
:1031C00000623AB140206065012084F83500BDE816
:1031D000F08100BF41612046FDF73EFEE16D3F22D8
:1031E00001F01F0102FA01F18160206840457FF77C
:1031F0007FAF45F22F41C5F60201884216DC40F24E
:10320000B741C4F20201884226DC40F27041C4F2A8
:103210000201884243D040F28841C4F20201884250
:103220003DD040F2A041C4F2020135E045F26B41CD
:10323000C5F6020188421FDC45F23041C5F60201A5
:1032400088422CD045F24441C5F60201884226D07E
:1032500045F258411EE000BF40F2B841C4F20201FD
:1032600088421CD045F20841C5F60201884216D0BA
:1032700045F21C410EE000BF45F26C41C5F602016B
:1032800088420CD045F29441C5F60201884206D02E
:1032900045F28041C5F60201884240F0E18045F2E6
:1032A000574C45F6FC01C5F6020CC5F60201604517
:1032B0000EDC45F22F42C5F60202904218DC45F2C0
:1032C0000842C5F60202904228D045F21C4221E095
:1032D00045F27F42C5F60202904213DC45F25842A5
:1032E000C5F60202904219D045F26C4212E000BFCE
:1032F00045F23042C5F6020290420FD045F24442F8
:1033000008E000BF45F29442C5F60202904205D0A3
:1033100045F28042C5F60202904247D100F0FC021D
:103320004CF6CD43083ACCF6CC43A2FB0323A1F1E3
:10333000FC05A1F17C061B0905EB830503F01F02C8
:10334000A3682566802B4FF0010303FA02F266663C
:10335000A26605D100206060286072601EE000BF98
:103360006768FBB2013F072F2B60726016D85E1EA4
:10337000082E19D2604501F1440237DC45F22F478F
:10338000C5F60207B84241DC45F20847C5F6020718
:10339000B84259D045F21C474AE000BF00206067A0
:1033A000C4E91B005CE000BFE06E54E000F0F802EE
:1033B0004AF6AB23103ACAF6AA23A2FB032740F22F
:1033C0000F43C4F2020308253A09984203F1AA0602
:1033D000134688BF05EB171340F60005B042C4F250
:1033E000020505F1800628BF1346A5E745F27F4791
:1033F000C5F60207B84213DC45F25847C5F6020786
:10340000B84221D045F26C4712E000BF45F2304788
:10341000C5F60207B84217D045F2444708E000BF9E
:1034200045F28047C5F60207B8420DD045F29447F1
:10343000C5F60207B84207D040F60000C4F2020009
:1034400000F1FC0100F5A07201EB83000121E066B0
:10345000B1402267616700210160D4E91C0141602D
:1034600000206065012184F83510BDE8F08100007E
:10347000B0B500283CD0054690F83400012801D1B1
:103480000220B0BD012085F8340095F835000128F0
:1034900028D1022085F83500002068652868046876
:1034A00024F0010404602846FDF76AFD40F20F4253
:1034B0002868C4F2020240F26F419042C4F2020155
:1034C00018DC6F23C4F20203984225DC3F23C4F2C8
:1034D000020398423CDC1023C4F2020398425ED0FF
:1034E000282357E04FF400606865002085F8340019
:1034F0000120B0BD88421BDC40F23F43C4F202030E
:1035000098422DDC40F21043C4F20203984246D0A8
:1035100040F228433EE000BF9F23C4F202039842DA
:1035200028DC7023C4F20203984238D0882331E0AB
:1035300040F29F43C4F20203984223DC40F27043FE
:10354000C4F2020398422AD040F2884322E000BF2E
:103550004023C4F20203984221D058231AE000BF4E
:1035600040F24043C4F20203984218D040F258435C
:1035700010E000BFA023C4F2020398420FD0B8238A
:1035800008E000BF40F2B843C4F20203984206D0FC
:1035900040F2A043C4F20203984240F02F81036836
:1035A0000B2464F3440303602B6C1BB108230468F1
:1035B00023430360884219DC9F23C4F2020398422C
:1035C00032DC5723C4F20203984259DC1023C4F2C0
:1035D0000203984200F096802823C4F20203984226
:1035E00000F090804023C4F2020389E045F22F43AB
:1035F000C5F6020398422DDC40F2B743C4F2020341
:1036000098424BDC40F27043C4F20203984279D0F6
:1036100040F28843C4F20203984273D040F2A043C0
:10362000C4F202036CE000BF40F22743C4F202037D
:10363000984243DCA023C4F20203984262D0B8232C
:10364000C4F2020398425DD040F21043C4F2020378
:1036500056E000BF45F26B43C5F6020398423FDCDB
:1036600045F23043C5F6020398424BD045F244433D
:10367000C5F60203984245D045F258433EE000BFEC
:103680005823C4F2020398423CD07023C4F20203D0
:10369000984237D08823C4F2020331E040F2B843A5
:1036A000C4F2020398422DD045F20843C5F6020346
:1036B000984227D045F21C4320E000BF40F2284347
:1036C000C4F2020398421DD040F24043C4F2020308
:1036D000984217D040F25843C4F2020310E000BFF2
:1036E00045F26C43C5F6020398420BD045F2944371
:1036F000C5F60203984205D045F28043C5F60203A1
:10370000984274D12B6E1C68E40303D51C6844F402
:1037100080741C60EB6E1BB11D6845F480751D60E4
:10372000904211DC6F21C4F2020188421EDC3F216D
:10373000C4F20201884235DC1021C4F20201884241
:1037400055D0282150E000BF88421BDC40F23F41A9
:10375000C4F2020188422DDC40F21041C4F20201A1
:10376000884244D040F228413EE000BF9F21C4F28D
:103770000201884228DC7021C4F20201884236D05E
:10378000882131E040F29F41C4F20201884223DCEB
:1037900040F27041C4F20201884228D040F28841D0
:1037A00022E000BF4021C4F2020188421FD058210C
:1037B0001AE000BF40F24041C4F20201884216D034
:1037C00040F2584110E000BFA021C4F2020188423B
:1037D0000DD0B82108E000BF40F2B841C4F20201A8
:1037E000884204D040F2A041C4F20201884201683C
:1037F00041F0010101600020B0BD00BF0368052455
:1038000064F3430303602B6C002B3FF4D3AE04231B
:10381000CDE6000000000000B0B5044600F088F9D5
:1038200040F25C010546C2F20041621C097818BFF3
:103830000C4400BF00F07CF9401BA042FAD3B0BD9D
:103840002DE9F04F81B000297CD000F1264242F2F0
:10385000004302F1FF72C5F602030A2698424FEABE
:10386000B22740F2040B08BF0926092FC5F6000B4A
:1038700038BF4FEAB22600220027009600264FF0FC
:103880000F0C23E06FF00304032304EA56040568D9
:10389000934004441D43056007F01C050CFA05FE27
:1038A000256A25EA0E052562C5689D43C560456801
:1038B00025EA0A054560856825EA03038360013629
:1038C000043731FA06F302F102023BD0012303FA76
:1038D00006FA1AEA0108F2D040F2084326F003057E
:1038E000C5F6000307F00C0E0CFA0EF9ED58009B1C
:1038F00005EA090503FA0EF39D42C3D1DBF87C30DB
:103900004FF0B04423EA0803CBF87C30DBF880307A
:1039100023EA0803CBF88030DBF8003023EA080301
:10392000CBF800302568B30825EA0805256040F289
:103930000844C5F6000454F8235025EA090544F864
:1039400023509FE701B0BDE8F08F000000000000A9
:103950002DE9F04F82B00D68002D00F0CB8000F112
:10396000264242F2004302F1FF72C5F602030A2624
:1039700098424FEAB22444F2F44E08BF0926092CBB
:1039800040F2040C38BF4FEAB226C5F6020EC5F667
:10399000000C009600220027002609E001360D6881
:1039A00035FA06F307F1040702F1020200F0A280E3
:1039B000012303FA06F415EA0408EFD0D1F804A0B5
:1039C00003230AF0030B9340ABF101056FEA0309EF
:1039D000012D0FD88368CD6803EA090395402B4376
:1039E0008360CAF300154368A34305FA06F4234332
:1039F000436005E0BBF1030F02D14FF0030B21E060
:103A0000C3688C6803EA09039440BBF1020F43EAE0
:103A10000403C36016D16FF0030307F01C0503EA2B
:103A200056030F24034404FA05FBD3F820A00C69C5
:103A30002AEA0B0AAC4044EA0A041C62D1F804A04A
:103A40000AF0030B03680BFA02F403EA09031AF401
:103A5000403F43EA04030360A0D0DEF8003040F2A8
:103A6000084A43F00203CEF80030DEF80030C5F615
:103A7000000A03F00203019326F00303019C07F000
:103A80000C040F2553F80A90A54029EA0509009D6A
:103A900005FA04F444EA090443F80A404FF0B04A36
:103AA000DAF800904C6849EA0805E30258BF29EAB1
:103AB0000805A302CAF80050DCF8009049EA08059E
:103AC00058BF29EA0805A303CCF80050DCF8809021
:103AD00049EA080558BF29EA0805E403CCF88050F4
:103AE000DCF87C3043EA080558BF23EA0805CCF827
:103AF0007C5053E702B0BDE8F08F000000000000EA
:103B00000069084018BF0120704700000000000055
:103B1000002A08BF0904816170470000000000000E
:103B200041F20000C5F600400068000C704700003C
:103B30004FF60050C2F202400068704700000000DB
:103B400040F25C004FF60051C2F20040C2F2024166
:103B500000780A6810440860704700000000000008
:103B600080B5032000F0D0FB03F066F844F2184162
:103B700042F25853C5F60201C0F605030A68096807
:103B800001F00F01C2F30322595C9A5C01F01F019E
:103B900002F01F02D04040F25802C2F2004220FA66
:103BA00001F1116040F25401C2F2004108600F209F
:103BB00000F00AF800281CBF012080BD00F030FB97
:103BC000002080BD00000000B0B58AB00F2842D8A8
:103BD00004461E2000222146002500F065FB1E2021
:103BE00000F04EFB40F26000C2F20040046044F27C
:103BF000E840C5F60200016841F004010160006878
:103C000001A900F004000290029802A802F060FFEF
:103C1000079C002C18BF012402F0AEFF4DF6836113
:103C2000A040C4F21B3140F60002A0FB010142F6A5
:103C30000850C2F202404FF0FF33C4F200020260AB
:103C400003EB9141C0E9011540F2E731C0E90315EA
:103C500005F09EF910B101200AB0B0BD42F608503F
:103C6000C2F2024005F0C8F90AB0B0BD0000000081
:103C7000B0B50446FFF75CFF0CB3054694F83D0071
:103C800002281FD12068C16821F03E01C160C168CF
:103C900021F00101C16000BF2068C168C90719D0C7
:103CA000FFF746FF401B0628F6D3A06E40F0400009
:103CB000A066002084F83C00032084F83D00012029
:103CC000B0BD00BF8020A066002084F83C00012029
:103CD000B0BD00BF1F214160002084F83C000121DD
:103CE00084F83D10B0BD000070B190F83D1002297D
:103CF0000CD1042180F83D100068C16821F0010159
:103D0000C1600020704700BF01207047802181669C
:103D1000012070470000000030B190F83C30012BCA
:103D200004D10220704700BF0120704790F83D3059
:103D3000012B1BD1D0F800C0DCF810305B0015D48B
:103D4000CCF830100029CCF834204FF00001DCF81A
:103D5000102022F0004218BF02F10042CCF81020DF
:103D6000002280F83C200846704700BF0121002255
:103D700080F83C200846704770B582B004460020A9
:103D8000019040F254012068C2F2004100F5F8624F
:103D90004FF0A4430968C2F384121B6823FA02F2AD
:103DA000D20700F0B48048F2B5120368C1F64E3273
:103DB000A1FB0216D90721D0C16889071ED5C168A9
:103DC00021F00201C16081680A064FF0020258BF6B
:103DD0000122A36E8D0542EA0302A26600F19A80D9
:103DE000CA0500F19E804A0500F1A280090503D5AD
:103DF000A16E41F02001A166012141600168C90660
:103E000044BFC1685FEA816152D40168090744BFB9
:103E1000C1685FEAC16155D40168490744BFC16800
:103E20005FEA017158D40168890744BFC1685FEA3D
:103E300041715BD4A06E002869D0042084F83D0055
:103E40002068B10AC26822F00102C260019A013200
:103E500001928A421AD8C268D20717D0019A013259
:103E600001928A4212D8C268D2070FD0019A013259
:103E700001928A420AD8C268D20707D0019A013259
:103E800001928A4202D8C268D207DFD1002184F8A9
:103E90003C10C068C0074FF0030008BF012084F841
:103EA0003D00616D99B3204602B0BDE870400847FF
:103EB00010214160A16C0029A7D0204688472068C6
:103EC000A3E700BF08214160E16C0029A4D020468F
:103ED00088472068A0E700BF04214160216D0029C8
:103EE000A1D02046884720689DE700BFC16821F027
:103EF0003E01C16094F83D10042921D1002084F8CE
:103F00003C00012084F83D00A16D0029CBD102B016
:103F100070BD00BFA26E42F00402A266CA057FF522
:103F200062AFA26E42F00802A2664A057FF55EAF5C
:103F3000A26E42F01002A26609053FF559AF5BE799
:103F400002214160002084F83C00012084F83D00FB
:103F5000616C00293FF46EAF204688476AE7000095
:103F600070B50446FFF7E4FDE4B10546002084F88F
:103F70003C00022084F83D002068C16821F0010166
:103F8000C16000BF2068C168C9070DD0FFF7D0FD30
:103F9000401B0528F6D9012003224021A16684F8A0
:103FA0003D2070BD012070BDD4E90335D4E901CEB8
:103FB0002B43C360D4E905352B43E5692B43256AC0
:103FC0002B43BCF1804FD4E90951D4E90B2643EAD5
:103FD000050342EA030240F20003CFF6FC7342EA13
:103FE000060203EB814142EA0E0241EA020101614D
:103FF00003D1016941F04041016100214161626BDF
:10400000B2F1FF3F04DC4169524241F48021416139
:1040100091B20162A26BB2F1FF3F01DD120406E032
:104020004169002341F400214161A3EB0242016A8E
:10403000114301625FFA8CF1816200214162012229
:104040000020C4E917116166A16684F83D2070BDA7
:10405000B0B538B190F83CC0BCF1010F04D10220DA
:10406000B0BD00BF0120B0BD4FF0010C80F83CC0D6
:1040700090F83DC0BCF1010F78D14FF0020C80F8F0
:104080003DC04FF0000CC0F868C0D0F800C0D0F8B8
:104090005CE011F05F4FDCF80C4024F00104CCF838
:1040A0000C40DCF81450049C63F310054FF6FF73CA
:1040B000CCF81450C0F20103DCF8145003F560236F
:1040C00003EA050343EA0453A3F58013CCF8143044
:1040D0004FF01F03CCF80430CCF81C20CCF818109B
:1040E000DCF8283023F4803308BF03F5803312F066
:1040F0005F4FCCF82830DCF8281021F4003108BFDD
:1041000001F50031CCF82810CCF824E0DCF80C10D4
:1041100041F00601CCF80C10C16C29B1DCF80C1090
:1041200041F01001CCF80C10016D29B1DCF80C1035
:1041300041F00801CCF80C10816C29B1DCF80C10AE
:1041400041F02001CCF80C10DCF80C1041F001011A
:10415000CCF80C104068B0F1804F0DD1DCF80C00A9
:1041600040F48030CCF80C000020B0BD002180F875
:104170003C100220B0BD00BF0020B0BD0000000018
:1041800010B54EF6A05E4178CEF2000E90F800C059
:104190004EF8081CDEF8001021F00101CEF80010E6
:1041A00041684EF8041C017BC37A827A447B1B066B
:1041B00043EA0171837B41EAC241C27B41EA844107
:1041C000447A41EA4341007A41EA024141EA04214A
:1041D00041EA400040EA0C00CEF8000010BD0000AB
:1041E0004EF62450CEF20000BFF35F8F016821F439
:1041F000803101600021016770470000000000006D
:104200004EF6245140F00100CEF200010867086824
:1042100040F480300860BFF34F8FBFF36F8F70475B
:1042200081B044F2F4400022C5F60200016841F07A
:104230000201016000680F2100F0020000906FF0A1
:104240000100009B01B000F02FB80000000000004A
:10425000002848BF704781B24EF280134909CEF260
:10426000000300F01F00012202FA00F043F82100D1
:10427000BFF34F8FBFF36F8F704700000000000047
:10428000002848BF704781B200F01F000122490991
:1042900002FA00F04EF20012CEF2000242F82100C3
:1042A000704700000000000070B54EF60C5C4FF047
:1042B000FF36CEF2000C00F1604505F56445DCF8F0
:1042C0000030C3F3022E8EF00703042B28BF042313
:1042D000BEF1030406FA03F321EA030100F00F0321
:1042E00038BF0024043B0028634406FA04F048BFAA
:1042F00003F10C05A14022EA0000084300012870E8
:1043000070BD0000000000004EF60C514FF6FF0398
:10431000CEF200010A681A4060F30A2242F080607F
:1043200040F0FD7008607047B0B544F60C05C5F666
:10433000020529684907296806D401F00701081A0F
:1043400018BF0120B0BD00BF21F00701084328605D
:10435000FFF7EEFB044600BF55F8080C800407D4B5
:10436000FFF7E6FB001BB0F57A7FF5D90120B0BD61
:104370000020B0BD0000000044F60C00C5F60200AD
:10438000016841F08071016070470000000000008A
:1043900044F60000C5F60200016841F48071016036
:1043A000704700000000000070B50446FFF7C0FB36
:1043B00094F8411005460020890758BF70BD84F865
:1043C000400021680A6852070BD5086820F00400F5
:1043D0000860E06BFFF74CFC60B1616C41F00401D8
:1043E000616421688A68920609D4012184F8411029
:1043F00070BD00BF002021688A689206F5D5086864
:1044000040F002000860A66C886880071BD4002E6C
:1044100044D0701C0ED18868800714D48868800747
:104420005CBF88685FEA80700DD488688007F2D529
:1044300009E000BFFFF77CFB401BB04234D8216885
:1044400088688007F6D50220C860A66C8868800658
:1044500008D4486920F040604861012084F8410098
:10446000002070BDF6B1701C0ED188688006F0D5B2
:104470008868800644BF88685FEA8060E9D58868FC
:104480008006F2D4E5E700BFFFF752FB401BB042C5
:104490000AD8216888688006F6D4DAE7FFF748FB77
:1044A00002E000BFFFF744FB042084F84100606C89
:1044B00040F001006064012070BD000000000000B9
:1044C00070470000000000002DE9F0411D4617462E
:1044D00088460446FFF72CFB94F84010012903D1CD
:1044E0000220BDE8F08100BF0646012084F84000AC
:1044F00094F84100012847D100206064422084F8EC
:10450000410020688168890644D497E80E108162D2
:104510004262C36201683A6921F4400111434FF0DD
:10452000006241F48001016020464146C8F828C07D
:1045300006F0C2FE2068816809071AD4002D45D014
:10454000691C0DD18168090713D4816809075CBF14
:1045500081685FEA01710CD481680907F2D508E02F
:10456000FFF7E6FA801BA84232D820688168090765
:10457000F6D50821C160012084F841000020002107
:1045800084F84010BDE8F0810220002184F840103A
:10459000BDE8F081D5B1691C0ED181688906B4D51A
:1045A0008168890644BF81685FEA8161ADD5816811
:1045B0008906F2D4A9E700BFFFF7BAFA801BA84228
:1045C00006D8206881688906F6D49EE7FFF7B0FA1E
:1045D000042084F84100606C40F001006064012018
:1045E000002184F84010BDE8F081000000000000C8
:1045F0002DE9F04381B0914688460446FFF798FACA
:1046000094F84010012905D10225284601B0BDE8E3
:10461000F08300BF0646012084F8400094F8410072
:1046200001282BD100256564422084F841002068D0
:10463000A76C8168890623D499E88E008162426262
:10464000C362016821F44001D9E9042311434FF00A
:104650000062194301600921C16020464146C8F843
:10466000287006F029FE84F840502068016841F463
:1046700010210160284601B0BDE8F083022525E045
:10468000D7B1791C12D181688906D5D58168890690
:1046900044BF81685FEA8161CED581688906F2D422
:1046A000CAE700BF206881688906C5D5FFF740FAD0
:1046B000801BB842F6D901E0FFF73AFA042084F8EB
:1046C0004100606C012540F001006064002084F826
:1046D0004000284601B0BDE8F08300000000000063
:1046E00040F20020C2F2024041780131417070472F
:1046F000F0B581B015460F460446FFF719FA94F855
:104700004010012902D1022001B0F0BD064601206F
:1047100084F8400094F8410001284FF0020034D1A1
:104720000021616484F8410020688168890631D4E1
:1047300000222046394606F0BFFD786A08BB206893
:10474000816889071BD4002D40D0691C0ED1816877
:10475000890714D4816889075CBF81685FEA817129
:104760000DD481688907F2D509E000BFFFF7E0F9B1
:10477000801BA8422CD8206881688907F6D50221C1
:10478000C160012084F841000020002184F840101D
:1047900001B0F0BDD5B1691C12D181688906C7D5B9
:1047A0008168890644BF81685FEA8161C0D58168FC
:1047B0008906F2D4BCE700BF206880688006B7D5C0
:1047C000FFF7B6F9801BA842F6D901E0FFF7B0F970
:1047D000042084F84100606C40F001006064012016
:1047E000002184F8401001B0F0BD0000000000007E
:1047F000F0B581B00D460446FFF79AF994F84010E1
:10480000012903D10226304601B0F0BD0646012041
:1048100084F8400094F8410001281DD10020606414
:10482000022084F841002068A76C8168890615D4AD
:10483000696A09B90321C160002220462946002681
:1048400006F03AFD686A28B3012084F8410084F834
:104850004060304601B0F0BD02262FE027B3791C3E
:1048600012D181688906E3D58168890644BF8168D1
:104870005FEA8161DCD581688906F2D4D8E700BFA0
:10488000206881688906D3D5FFF752F9801BB842AA
:10489000F6D90BE084F840602068016841F44031AB
:1048A0000160304601B0F0BDFFF742F9042084F802
:1048B0004100606C012640F001006064002084F833
:1048C0004000304601B0F0BD70B110B5044600683C
:1048D000016821F001010160204600F011FA00207A
:1048E000606484F8410010BD0120704700000000A2
:1048F000704700000000000070470000000000004A
:1049000010B50446006882685107016822D511F489
:1049100080231FD094F8411012293FD181684907A4
:1049200040F18F80E16A002900F08680616A097891
:1049300080F820102168626AE36A013262625A1EBE
:10494000E2628A68520740F17C80E26A002AEDD177
:1049500073E000BF93073DD511F400333AD0022134
:10496000C160016821F4E021016094F8411012292E
:1049700046D10168490709D5016821F004010160A9
:10498000E06B0068C16821F00101C160012084F87A
:1049900041002046BDE8104000F02EBD94F84110C3
:1049A00022294ED1816849074BD5A16B002943D0FC
:1049B00090F82010226B11702168226BA36B0132DA
:1049C00022635A1EA2638A6852073AD5A26B002A54
:1049D000EED132E013071DD511F400231AD00821BF
:1049E000C1600168490206D5016821F41021016007
:1049F000012084F841002046BDE8104000F0A8BB2B
:104A000094F84110222921D1016849073ED48168D8
:104A10006AE000BFD30718BF11F4803322D1D20659
:104A200054D511F4801151D01021C1602046BDE849
:104A3000104000F095BB00BF0146086820F48020BC
:104A400008602046BDE81040FFF756BF94F84110BB
:104A5000022927D1012084F841002046BDE81040FA
:104A6000FFF73EBE0121C160026822F4702202609D
:104A7000626C42F0020262640268520742D484F817
:104A800041102046BDE81040FFF732BF016821F019
:104A900004010160E06B0068C16821F00101C160A0
:104AA00028E000BF94F8411008290FD1416921F096
:104AB00040614161012084F84100606C0028E0D130
:104AC0002046BDE81040FFF7FBBC00BF10BD00BF93
:104AD00090F82010226B11702168226BA36B0132B9
:104AE00022635A1EA263896811F47C5F1CBFA16B0C
:104AF0000029EDD1012084F841002046BDE8104096
:104B000000F01EBB016821F004010160E06B4BF274
:104B1000B941C0F600018165FFF7E6F8002808BF3B
:104B200010BD606C40F004006064012084F8410016
:104B30002046BDE81040FFF7DBBE0000000000008B
:104B400070B50446FEF7F4FF002C66D0054694F8D5
:104B5000410028B9204600F0FFF841F28830A064F7
:104B600020686FF0FF03A168A66C026822F4F85277
:104B700003EB0121114301608168890628D44FF6B7
:104B80002F720168C0F2FF0263681140E66831438A
:104B90002669D4E9072541EA0361636911434FF6A9
:104BA000FE02294301604168CFF6E0721140A2691C
:104BB000194341EA064111434160016841F0010196
:104BC000016000206064012184F8411070BD00BFC5
:104BD000D6B1711C0ED181688906D0D5816889064D
:104BE00044BF81685FEA8161C9D581688906F2D4D2
:104BF000C5E700BFFEF79CFF401BB04206D8206807
:104C000081688906F6D4BAE7FEF792FF042084F89B
:104C10004100606C40F001006064012070BD000044
:104C20002DE9F041164688460446FEF781FF94F8C8
:104C30004010012902D10220BDE8F0810746012081
:104C400084F8400094F84100012827D100206064D6
:104C5000822084F841002068A56C8168890623D4ED
:104C60000168726821F00801082A41EA0201016026
:104C700007D1316801631021C160016841F48011DE
:104C800001604FF040622046414606F015FB0020CF
:104C9000002184F84010BDE8F08100BF022000210F
:104CA00084F84010BDE8F081D5B1691C0ED181684F
:104CB0008906D5D58168890644BF81685FEA81612C
:104CC000CED581688906F2D4CAE700BFFEF730FF6F
:104CD000C01BA84206D8206881688906F6D4BFE7C1
:104CE000FEF726FF042084F84100606C40F00100CC
:104CF00060640120002184F84010BDE8F0810000CC
:104D000010B545F200010068C5F20021884218BFC5
:104D100010BD44F2D44040F20044C5F60200C5F68E
:104D20000204016821F48041016004F5406004211F
:104D3000FEF786FD44212046FEF782FD04F5006063
:104D40004FF46051FEF77CFD5C20BDE81040FFF79A
:104D50007FBA0000000000002DE9F04FB5B06946B1
:104D6000044601F10800B821FBF7FCFA45F2000106
:104D70002068C5F20021884202D035B0BDE8F08F2E
:104D80004FF0007000901020139068464FF000081C
:104D9000CDF8048000F0C8FF08B1FCF781FA44F2B6
:104DA000E04040F20045C5F60200C5F6020530AE0F
:104DB0004FF0040A50F80C1C4FF0020B41F48041F4
:104DC00040F80C1C50F80C1C4FF0030901F4804112
:104DD00030913099016841F01001016001680927A4
:104DE00001F0100130913099016841F00201016039
:104DF000016801F0020130913099016841F0080129
:104E000001600068314600F008003090309805F5E8
:104E10004060CDF8C0A0CDE931B8CDF8CC90349742
:104E2000FEF796FD28463146CDE930ABCDE9328913
:104E30003497FEF78DFD4FF460503146CDE9300BCD
:104E400005F500603497CDE93289FEF781FD4020F9
:104E50003146CDE9300B0120CDE932090A203490EA
:104E60002846FEF775FD5C2006210022FFF71CFA9C
:104E70005C20FFF705FA42F67430C2F20240E063AC
:104E8000046435B0BDE8F08F2DE9F04115460F46BA
:104E90000446FEF74DFE2668B16994F84020012AC9
:104EA00002D10220BDE8F0818046012084F8400054
:104EB00094F8410001286FD1002F4FF0000060648A
:104EC00000F09080222084F84100306901220130F6
:104ED000A0633069013060632763706962F39B608F
:104EE0007061B161A06BA8B1681C35D0002D65D18F
:104EF0002068806810F0060F00F07E8096F8200091
:104F00003870206BA16B471C2763481EA063A06B01
:104F10000028EDD120688168890739D4002D6BD035
:104F2000691C2BD18168890732D4816889075CBFED
:104F300081685FEA81712BD481688907F2D527E007
:104F400096F820003870206BA16B471C2763481E21
:104F5000A063A06B0028DDD02068816811F0060FE7
:104F6000EED1816811F0060F04BF816811F0060FC1
:104F7000E6D1816811F0060FEFD0E1E7FEF7D8FD2A
:104F8000A0EB0800A84239D8206881688907F5D5C8
:104F90000221C160002039E00220002184F8401085
:104FA000BDE8F08196F820003870206BA16B471C9B
:104FB0002763481EA063A06B0028ABD020688068E0
:104FC00010F0060FEED100BFFEF7B2FDA0EB080017
:104FD000A84213D82068806810F0060FF4D0276B21
:104FE000E0E700BF606C40F0080060640120002131
:104FF00084F84010BDE8F081FEF79AFD042084F8A3
:105000004100606C40F0010060640120012184F8DF
:105010004110002184F84010BDE8F081000000003C
:1050200070B582B004460368D3F818C0186994F8C4
:105030004020012A04D10225284602B070BD00BFDD
:105040000A46012184F8401094F8411001292DD11D
:105050004FF0000666645AB30130A063222084F842
:1050600041000320D860A06B6063E06B4BF2895174
:10507000C0F60001226341644BF2F141C0F6000129
:10508000416501688665066A40F2033E0D69802E1F
:1050900025EA0E050D6111D0402E17D006BB0E6912
:1050A00040F60C45AE43083616E000BF02253EE050
:1050B000606C40F00800606438E000BF0E6940F6A4
:1050C0000C45AE4306F6080606E000BF0E6940F642
:1050D0000C45AE4306F581660E61002505E000BF74
:1050E000616C012541F0040161645969012666F390
:1050F0009B615961C3F818C0196841F48031196087
:10510000196841F00401196003F12001636B0096F6
:10511000FEF79EFF58B12068016821F0040101608C
:10512000606C40F00400606484F841600125002058
:1051300084F84000284602B070BD00000000000066
:1051400040F20020C2F20240017801310170704744
:1051500040F20020C2F20240817801318170704734
:1051600070470000000000002DE9F04115460F4691
:105170000446FEF7DDFC266894F84010012903D1AF
:105180000220BDE8F08100BF8046012084F8400085
:1051900094F84100012869D1002F4FF000006064AD
:1051A0006AD0122084F8410030690130E062306931
:1051B0000130A0626762706920F040607061E06A4F
:1051C000A0B1681C34D0002D6CD100BF206880686D
:1051D000400777D5387886F82000606AE16A471C76
:1051E0006762481EE062E06A0028EFD120688168AB
:1051F000890737D4002D65D0691C29D181688907BA
:1052000030D4816889075CBF81685FEA817129D4E5
:1052100081688907F2D525E0387886F82000606A31
:10522000E16A471C6762481EE062E06A0028DDD040
:10523000206881684907EFD4816849075CBF8168AD
:105240005FEA4171E8D481684907F2D5E4E700BF1D
:10525000FEF76EFCA0EB0800A84235D820688168F4
:105260008907F5D50221C160002035E00220002128
:1052700084F84010BDE8F081606C40F00800606484
:105280000120002184F84010BDE8F081387886F8CC
:105290002000606AE16A471C6762481EE062E06ABB
:1052A0000028A3D0206880684007EFD4FEF740FCB8
:1052B000A0EB0800A84207D8206880684007F5D511
:1052C000676AE3E7FEF734FC042084F84100606C71
:1052D00040F0010060640120012184F841100021A8
:1052E00084F84010BDE8F08170B582B004460268D1
:1052F000106994F84030012B04D10225284602B0F1
:1053000070BD00BF012384F8403094F84130012B78
:1053100030D14FF00005656471B30130E0621220B6
:1053200084F841000320D060E06AA06261624BF221
:10533000A1535069C0F6000320F040605061E06B5B
:1053400040F60C4C43644BF2F143C0F60003436556
:1053500003688565C6691D69202E25EA0C051D6157
:1053600010D0102E16D0FEB91E6940F20335AE43A0
:10537000023615E0022537E0606C40F008006064FA
:1053800031E000BF1E6940F20335AE4306F202264B
:1053900006E000BF1E6940F20335AE4306F5817694
:1053A0001E61002505E000BF636C012543F0040386
:1053B00063641368012643F480331360136843F079
:1053C000040342F8203BA36A0096FEF741FE58B161
:1053D0002068016821F004010160606C40F0040065
:1053E000606484F841600125002084F8400028466C
:1053F00002B070BD0000000040F20020C2F2024086
:10540000C1780131C170704780B501F08DFB44F265
:10541000204142F25852C5F60201C0F60502096861
:10542000C1F30211515C01F01F01C84080BD0000B2
:1054300080B544F2304EC5F6020E5EF8083C5EF8C8
:10544000081CC1F3051C5EF8041CBCF1000FDEF85B
:10545000042025D001F0010103F003034942022B8F
:1054600001EAD2016FF35F3100EE101AB8EE400A84
:105470001CD0012B2AD01BB95EF8301C89066FD4D2
:10548000DEF800109FED492A6FF35F2101EE101A3C
:10549000B8EE411AA0EE021A9FED470A24E000BFC1
:1054A00000218160C0E9001180BD00BFDEF800105E
:1054B0009FED3E2A6FF35F2101EE101AB8EE411AFC
:1054C000A0EE021A9FED3A0A0EE000BFDEF80010CF
:1054D0009FED362A6FF35F2101EE101AB8EE411AE4
:1054E000A0EE021A9FED330AA1EE000A01EE10CAE7
:1054F000B8EE411ADEF8001080EE010AB7EE002A7D
:10550000C1F3462101EE101AB8EE411A31EE021A2B
:1055100080EE011ABCEEC11A80ED001ADEF8001010
:10552000C1F3064101EE101AB8EE411A31EE021A2B
:1055300080EE011ABCEEC11A80ED011ADEF80010EF
:10554000C1F3066101EE101AB8EE411A31EE021AEB
:1055500080EE010ABCEEC00A10EE101A816080BD18
:10556000B7EE001A5EF8301CDEF800209FED0F2A1F
:105570006FF35F22C1F3C101A0EE021A00EE102A00
:1055800049F20002C0F2D03222FA01F1B8EE400A2C
:1055900002EE101AB8EE422A31EE000A01EE10CAED
:1055A000B8EE411A20EE020AA4E700BF000000395D
:1055B00020BCBE4B0024744A0024744C0000000040
:1055C00080B544F2384EC5F6020E5EF8103C5EF827
:1055D000101C5EF80C2CC1F3053CDEF80410BCF185
:1055E000000F23D0C90803F00303D206022B01EAFF
:1055F000E2716FF35F3100EE101AB8EE400A2BD063
:10560000012B19D0C3B95EF8381C89066ED4DEF8B8
:1056100000109FED492A6FF35F2101EE101AB8EEDA
:10562000411AA0EE021A9FED470A23E00021816093
:10563000C0E9001180BD00BFDEF800109FED3E2ADA
:105640006FF35F2101EE101AB8EE411AA0EE021AB4
:105650009FED3B0A0EE000BFDEF800109FED362AFA
:105660006FF35F2101EE101AB8EE411AA0EE021A94
:105670009FED320AA1EE000A01EE10CAB8EE411AFF
:10568000DEF8001080EE010AB7EE002AC1F34621D1
:1056900001EE101AB8EE411A31EE021A80EE011A2C
:1056A000BCEEC11A80ED001ADEF80010C1F306410D
:1056B00001EE101AB8EE411A31EE021A80EE011A0C
:1056C000BCEEC11A80ED011ADEF80010C1F30661CC
:1056D00001EE101AB8EE411A31EE021A80EE010AFC
:1056E000BCEEC00A10EE101A816080BDB7EE001A41
:1056F0005EF8381CDEF800209FED0F2A6FF35F2262
:10570000C1F3C101A0EE021A00EE102A49F2000214
:10571000C0F2D03222FA01F1B8EE400A02EE101ABD
:10572000B8EE422A31EE000A01EE10CAB8EE411A74
:1057300020EE020AA4E700BF0000003920BCBE4BE7
:105740000024744A0024744C80B544F2404EC5F6DF
:10575000020E5EF8183C5EF8181C5EF8142CC1F3BB
:10576000055CDEF80410BCF1000F23D0C90803F07B
:105770000303D205022B01EAE2716FF35F3100EE01
:10578000101AB8EE400A2BD0012B19D0C3B95EF81D
:10579000401C89066ED4DEF800109FED492A6FF395
:1057A0005F2101EE101AB8EE411AA0EE021A9FED29
:1057B000470A23E000218160C0E9001180BD00BFDD
:1057C000DEF800109FED3E2A6FF35F2101EE101A04
:1057D000B8EE411AA0EE021A9FED3B0A0EE000BFA0
:1057E000DEF800109FED362A6FF35F2101EE101AEC
:1057F000B8EE411AA0EE021A9FED320AA1EE000A9D
:1058000001EE10CAB8EE411ADEF8001080EE010A6F
:10581000B7EE002AC1F3462101EE101AB8EE411A84
:1058200031EE021A80EE011ABCEEC11A80ED001AA8
:10583000DEF80010C1F3064101EE101AB8EE411A6D
:1058400031EE021A80EE011ABCEEC11A80ED011A87
:10585000DEF80010C1F3066101EE101AB8EE411A2D
:1058600031EE021A80EE010ABCEEC00A10EE101AE8
:10587000816080BDB7EE001A5EF8401CDEF80020A3
:105880009FED0F2A6FF35F22C1F3C101A0EE021A50
:1058900000EE102A49F20002C0F2D03222FA01F1E1
:1058A000B8EE400A02EE101AB8EE422A31EE000AB3
:1058B00001EE10CAB8EE411A20EE020AA4E700BFBA
:1058C0000000003920BCBE4B0024744A0024744CF4
:1058D00010B584B0024641F6FF7300209B1A70EBAE
:1058E00001033BDB40F2FF339B1A70EB010361DAEB
:1058F00082F480630B4300F0F78082F400630B4373
:1059000000F0188182F48052114340F0868144F205
:105910000041C5F60201086DC0F30232042A00F20C
:10592000548148F20000C0F2BB00DFE812F015011C
:105930003701410176010500C86C0A68520700F082
:105940004052086802D5002A00F0B981C00540F134
:105950007581B2F1805F00F0CC816FE147F6FF7393
:105960009B1A70EB010355DA82F400430B4300F0FD
:10597000F58082F480330B4300F0008182F4002232
:10598000114340F04A8144F20040C5F60200816DA7
:1059900001F44031B1F5003F00F02081B1F5803FC6
:1059A00000F02A81002940F010810068000140F1D8
:1059B0000C81F6E082F480730B4357D082F40072BE
:1059C000114340F02A8144F20041C5F60201086DFE
:1059D000C0F38212042A00F2F88048F20000C0F2FC
:1059E000BB00DFE812F0B900DB00E5001A0105009A
:1059F000C86C0A68520700F04052086802D5002AB5
:105A000000F05D81C00540F11981B2F1805F00F0C6
:105A1000708113E182F400530B434DD082F4804235
:105A2000114340F0FA8044F20044C5F60204A06D30
:105A3000C0F30270052800F2C880DFE810F007000C
:105A40001101130115011B011D0100BF01F06CF8CC
:105A5000216A42F25852C0F60502C1F30211515CAC
:105A600001F01F01C84004B010BD00BF44F2004166
:105A7000C5F60201086D00F00702042A00F2A580B5
:105A800048F20000C0F2BB00DFE802F0668892C76F
:105A9000040000BFC86C0A68520700F04052086852
:105AA00002D5002A00F00B81C00540F1C780B2F199
:105AB000805F00F01E81C1E044F20040C5F60200A4
:105AC000016DC1F30241052900F27F80DFE811F08A
:105AD0000600DE00E800F2000201540004B0BDE858
